S02B0000646973742F52656C656173652F70726F64756374696F6E2F415050535F454E444445564943455F44CE
S2140000001041002041320000B1320000B132000041
S21400001000000000000000000000000000000000DB
S214000020000000000000000000000000B1320000E8
S2140000300000000000000000B1320000B1320000F5
S214000040B1320000B1320000B5100000D90900003E
S214000050B1320000B1320000B1320000B13200000F
S2140000606D2500007D2500008D2500009D250000E3
S214000070AD250000BD250000B1320000B132000001
S214000080B1320000F13100000132000011320000F0
S214000090213200003132000005060000B1320000B7
S2140000A0B1320000B1320000B1320000B1320000BF
S2140000B00000000010B5064C2378002B07D1054B36
S2140000C0002B02D0044800E000BF0123237010BDBF
S2140000D0100A0020000000004CB40100084B10B5C8
S2140000E0002B03D00749084800E000BF0748036814
S2140000F0002B00D110BD064B002BFBD09847F9E72C
S21400010000000000140A00204CB401004CB40100AA
S21400011000000000094B196800290BD1EFF310808E
S214000120074A002805D172B6BFF35F8F05490870ED
S214000130012111701A6801321A6070472C0A0020DB
S214000140300A002000000020084B1A68013A1A60A6
S2140001501B68002B09D1064B1B78002B05D001220B
S214000160044B1A70BFF35F8F62B670472C0A0020EC
S214000170300A00200000002070B5094B0020984788
S214000180FA21084C89000500A047074B074918606C
S2140001902800A0470522064B1860064B1A6070BD63
S2140001A0D12B0000611B01000400002040420F001C
S2140001B00800002010E000E030B580240021074B46
S2140001C064021A68064B013800D230BD002AFAD005
S2140001D05A6099601D682542FCD0F4E708000020AC
S2140001E010E000E030B580240021074B64021A6856
S2140001F0064B013800D230BD002AFAD05A6099600A
S2140002001D682542FCD0F4E70400002010E000E062
S214000210F7B50023012501AC134E210013206570AD
S214000220A3702570B0478023104F1B03BB612100CD
S21400023012202570B0478023DB02BB6121000D2011
S2140002402570B04780239B017B6121000920257023
S214000250B04780239B007B61002321001C20657033
S2140002602370B047F7BDC046E10D000000280040EF
S2140002700368188C431E9841C0B2704730B599B0D9
S21400028002AD040058220A4928000A4B9847132C4E
S2140002900BD80023A40001A960594B70CB708B705B
S2140002A001330B70C0B2044B984719B030BDC0463E
S2140002B0809C010029530100712D0000002070472A
S2140002C006220271C0225201C280020000232A3296
S2140002D0037043708370C37003830362C361037249
S2140002E043728372C37203731370421D4373837326
S2140002F0C37303610375D377C3840385437570475F
S214000300F0B50D000600AC4B080085B01400984709
S2140003100823AA4A3560116A07000B4313622B783C
S2140003200520DB0700D5D8E03000A54B984700280D
S214000330FAD12B781C309B0700D5CEE0637833715A
S214000340002B04D19F4A0433D1690B43D3619E4AE4
S214000350BF00BE50220000232A323383B360F3600E
S2140003603361B376F3763377009212789A4203D1EC
S214000370227B9A4200D101337377237803A90B704E
S2140003801E20924B376898471E20914B984720793D
S214000390904B9847E0888F4B984700250123AB4049
S2140003A022691A4202D028008A4B98470135142D3C
S2140003B0F4D1637BA27B9B01D2011343DBB23B707B
S2140003C0237D6278DB011343DBB2BB70E578302D0A
S2140003D000D18FE009D8102D00D188E0202D00D163
S2140003E088E0002D0BD12B0082E0322D09D000D200
S2140003F082E0332D00D176E0342D00D16FE0172057
S2140004006BE0042310250222702112010A401343D8
S2140004103B7330006A4B98470028FAD1627D3F2A2A
S214000420EDD8E37BDB011343DBB27B733000644B18
S21400043098470028FAD1A3787B70631D0193DB7F71
S214000440227BDB0092001A43E37A1343A27A52001F
S21400045013432B437B813000594B98470028FAD131
S214000460238B002B06D0102D00D182E046D8002D1D
S21400047000D176E07A8913437B813000504B984751
S2140004800028FAD1A38BFB8130004D4B98470028FB
S214000490FAD1238C3B823000494B98470028FAD18A
S2140004A02379E28813433B813000454B9847002868
S2140004B0FAD1009B1B78FB7007233B71019BDB7F07
S2140004C0002B5ED1E0210020434BC9001B681A02B6
S2140004D09B060A405B0F1343BB8505B0F0BD627AEE
S2140004E0237A102590E70623102501228CE708239F
S2140004F0002289E70023FBE70223F5E7202D17D02B
S214000500302DB7D1E27AE169002A09D00A0080329C
S214000510FF2A00D973E7226A8032FF2A00D96EE7E5
S214000520FF2900DD6BE7226AFF2A00DD67E7A1E707
S214000530E17A2A4A00290BD08020E1698000091858
S214000540914200D95BE7216A0918914200D956E723
S214000550E169914200DD52E7216A914200DD4EE7F3
S21400056088E7E17A1E4A0029F2D08020E16900017E
S214000570E5E7E17A1B4A0029EAD08020E16900021B
S214000580DDE7E38C164DAB4200D938E77B823000BE
S2140005900B4B98470028FAD18023228D1B01D318D5
S2140005A09BB2AB4200D92AE7BA823000044B984788
S2140005B00028FAD186E7C046BD02000000040040CD
S2140005C071020000001400401C100020992C00004E
S2140005D0392C00007D02000020608000FF03000030
S2140005E0FF0F0000FFFF000003681A8C002AFCD1F2
S2140005F00222197E0A431A7603681A8C002AFCD156
S2140006007047000070B5284B1C6823689A795D799E
S21400061015400122154218D09A7161698B1C6361DE
S21400062023689B8C9BB20B80238B013B9BB223835E
S214000630002B29D0637F002B07D02368DB795BB2C1
S214000640002B02DB2000194B984704231D420BD0D9
S21400065022689371E27E023B1A4205D0A27E1A42BD
S21400066002D02000E368984702231D420BD0226880
S2140006709371E27EDB181A4205D0A27E1A4202D09F
S21400068023692000984770BD21680A71217F0529DB
S214000690DBD12377E37E1342D7D0A37E1342D4D098
S2140006A02000A3689847D0E71C100020E90500004A
S2140006B001230F2203700023427143708370C370BE
S2140006C003718371C3710372704702230268116855
S2140006D00B431360704703230221026853710268BC
S2140006E0D371026813688B431360704770B50500BA
S2140006F0D3780E00037129605378437113798371A0
S21400070014789378A402DB021C435378D1791B0239
S2140007101C43D37849039B001C4313795B01234396
S2140007209479A4030C43117A527909030C43F021FF
S214000730120409030A4014431C4333689B0706D57A
S214000740044B984734602800034B984770BD3460CC
S214000750FCE7C046D7060000CB060000802370B535
S214000760044C9B01E5692B43E36101230B60024BBC
S214000770984770BD00040040ED060000437970B550
S2140007800024022B01D8074AD45C0023A34200D3DE
S21400079070BD9A008D5806689A1C9200B218556073
S2140007A00133F3E7D89C01000023026810B51372EA
S2140007B042680F4B0F4C13400268A34205D10B68EA
S2140007C0936303684A689A6310BD0379032B03D1C9
S2140007D08379023B012B07D90B001033026810C93E
S2140007E094638B42FAD1EFE70B689363ECE7C0465D
S2140007F0FF00FF00030001000023026810B513721B
S21400080042680F4B0F4C13400268A34205D1936B0E
S2140008100B6003689B6B4B6010BD0379032B03D101
S2140008208379023B012B07D90B0010330268926BC9
S21400083004C18B42FAD1EFE7936B0B60ECE7C0463E
S214000840FF00FF00030001000123044A180051685E
S214000850890700D4506818407047C04600240040FE
S214000860022310B5044A11780B431370034B9847C4
S2140008700028FBD110BDC0460024004049080000F7
S214000880022110B5044A13788B431370034B984724
S2140008900028FBD110BDC0460024004049080000D7
S2140008A0802310B50E4A9B0051690E4C0B435361D2
S2140008B0012221780A4322700B4B98470028FBD16F
S2140008C010232278134302002370084B1A5004307A
S2140008D04028FBD10822064B1A60064B984710BDED
S2140008E000040040002400404908000020100020BA
S2140008F000E100E061080000012200230272921865
S214000900036043608372C27243727047F7B50C008F
S21400091000261B4B05009847237901A94E70CE7020
S2140009200B70237A20788B70164B984731001F2D5A
S21400093000D815490722A37A2A409200E67A002BAF
S21400094001D008231E430F27964097403200EB083D
S2140009509B00CB18D869B8430243DA61627A012358
S214000960002A06D0AB408A6913438B61074B984731
S214000970F7BDAB40DB4388699BB20340F5E7C04652
S21400098081080000712D000000240040610800006E
S21400099010B51723002A06D1064B8900CC58002C28
S2140009A003D1C8502300180010BD13008442FAD0AB
S2140009B01D23F8E7201000201723002906D11F2842
S2140009C006D8163B8340034A13610B001800704795
S2140009D00961FFDE00240040002370B501250B4CA2
S2140009E0237023780F2B00D970BD29009940084A40
S2140009F05069084206D05161064A9B009B58002B5E
S214000A0000D09847237801332370EAE7601000206F
S214000A100024004020100020024B187D01231840BF
S214000A207047C04600400041042370B51C4A1D4D67
S214000A30916904000B4393612023FF332B831A4BE9
S214000A40984703000520002B28D0C0221E212378BB
S214000A5092001B021340A27852000A4080211343E2
S214000A606278C902D2011343E27892040A40C02198
S214000A7013432279890212040A40082113436B604B
S214000A80AB680A4A5B035B0F99401180AB685380E2
S214000A9063781371288BC005C00F000170BDC04677
S214000AA00004004000400041190A0000320A0020FD
S214000AB0F7B5344A0D005388118804004B43AB4207
S214000AC00BD28022304B9201EB18934205D92F4B64
S214000AD02F4AEB181820934212D82E4F7B683E0000
S214000AE001938023019ADB0213437B602023FF33AC
S214000AF03B83294B9847002803D1019B05307B6038
S214000B00FEBD1A2C05D016D8042C02D00DD8022C07
S214000B100DD1AD086D00F5611A2C30D180237268B6
S214000B20DB021343736073680EE0062C20D9019B2A
S214000B3017207360E4E7412C04D8402CE9D21C2C23
S214000B40F5D1E6E7452CF2D8A5231B0223433380D4
S214000B50114B98470028FBD0FD231A3C1C4203D1BA
S214000B6073680E4A13407360019B00207360C7E7EA
S214000B703B8BDB05CDD5019B10207B60C0E71C2C92
S214000B80CCD0E1E7320A002000C07FFF0000C0FFA3
S214000B90FF1F000000400041190A0000FFFFFBFF96
S214000BA0F7B5294F019115003B887A8804005A430F
S214000BB0824233D2254926486118182281422BD812
S214000BC0173A591E009218220C4225D1013AAB4220
S214000BD022D3204B9847052200281DD01E4E1F4BBF
S214000BE033801C4B98470028FBD02023FF333383E9
S214000BF0002362085200681EAB4211D300223B79E4
S214000C00934209D13F2D07D80099154B914217D032
S214000C1021001C20984702001000FEBD0022D0E7ED
S214000C200199C95C834205DB89B2023311809BB20D
S214000C300232E1E7019EF618767836023143F4E791
S214000C4021000420E6E7C046320A00200000C0FF6C
S214000C50FF1F0000190A00000040004144A5FFFFE6
S214000C60B10A0000F8B51A4B16001A885B88050012
S214000C7053430F00834205D21649174869181823B4
S214000C80814216D8541E2C401823002C11D1013B4B
S214000C90B2420ED3114B98470523002809D02022D4
S214000CA00F4BFF326D081A836D00711EA64202D8E4
S214000CB000231800F8BD2B889BB23B558C4202DA05
S214000CC03A191B0A53700234A4B20235EEE7C04646
S214000CD0320A00200000C0FFFF1F0000190A0000B3
S214000CE000400041F8B51F4A0700138852885A434F
S214000CF0824207D21C4A1D49BA18182001258A428A
S214000D0001D9F8BD00259B00013B18201F42F8D1F1
S214000D10174EB04703000520002BF2D02023154CB9
S214000D20BF08FF337F002383E761002D17D08023A1
S214000D306268DB021343636063680F4B2380B0472F
S214000D400028FCD0002D03D063680C4A1340636073
S214000D501C23208B1840431E98418000D1E7084B87
S214000D60ECE7C046320A00200000C0FFFF1F00006C
S214000D70190A0000004000411AA5FFFFFFFFFBFF15
S214000D8002A5FFFF202210B507240821124BFF32D0
S214000D901A839A68130C234099404280120D828170
S214000DA00E4A017013881B092340A34209D1002371
S214000DB04360072312881A409A4207D100238360B3
S214000DC010BD0621C91A04238B40F1E79B1A0422A2
S214000DD09A408260F4E7C046004000410040800030
S214000DE007B5802201AB1A700A785A704A789A7052
S214000DF08A781900DA70014B984707BD712D0000FC
S214000E0003681869431E9841C0B27047042270B543
S214000E100400084B06681A602000074DA847002803
S214000E20FAD102233288134333802000A8470028D3
S214000E30FBD170BD00E100E0010E0000042270B599
S214000E4005000A4B0468DA672800094EB0470028F8
S214000E50FAD10222074B2381A38123889343238060
S214000E602800B0470028FBD170BDC04604E100E072
S214000E70010E0000FF81FFFF70B50A4B04000668F4
S214000E8098470023A386E3862000074DA84700283E
S214000E90FAD101233288134333802000A847002864
S214000EA0FBD170BD3D0E0000010E0000F8B5050038
S214000EB00C00076828000B4EB0470028FAD12B79A3
S214000EC0002B08D01720012B04D1BC612800B047A6
S214000ED00028FBD1F8BD044B17209C42FAD8A4B2D8
S214000EE03C83F3E7010E0000FFFF000070B504002E
S214000EF005682000064B98470028FAD12379002B76
S214000F0003D0012B00D1A86970BD288B80B2FBE707
S214000F10010E0000F8B506000D001400076830004A
S214000F20104B98470028FAD13379002B0DD0012BAF
S214000F3016D11730012C07D80834A400E55130002C
S214000F40084B98470028FAD1F8BD1720022CFBD88A
S214000F50054B9D42F8D81034ADB26400E553EEE779
S214000F601A20F1E7010E0000FFFF0000F8B580230D
S214000F701400204A016051695B000B43536105224F
S214000F8005001D4B1A611D4B9847A3782B711C4B0F
S214000F901D6022792188D2032B680A4392B21A80F8
S214000FA0A278002A13D01720012A0FD11A8892B2ED
S214000FB01A80E278002A03D0802219880A431A8011
S214000FC00022A16828000F4B98470020F8BD042295
S214000FD0198817200A431A80E678002EF6D13200C8
S214000FE0A1682800074FB8470122E1682800B847E3
S214000FF0EBE7C0460004004000100040790E0000F9
S21400100064100020150F00000A2A09D0072A07D905
S2140010100379002B0FD0012B0FD11633092A0DD8D8
S214001020931C9B00195001239340818E0B439BB267
S2140010308386002302E00A2AF2D917231800704795
S21400104010B502680A2908D10B4B538101238B4047
S214001050C28E13439BB2C38610BD0123072902D854
S2140010608B409BB2F1E70C00083CA340C0241B0257
S214001070A4002340E9E7C0460080FFFF10B50268E1
S2140010800A2907D10A4B138101228A40C38E934353
S214001090C38610BD0123072902D88B409BB2F2E716
S2140010A00C00083CA340C0241B02A4002340EAE72F
S2140010B00080FFFFF7B5214B1C68E38EA28E2668E2
S2140010C01A400092B38975891D402BB2002B07DAAF
S2140010D013005B0501D5236B9847194BB381F7BD09
S2140010E0EBB2002B15D000270123BB4001932B4207
S2140010F008D0009B01223B41134203D0BB1C9B003F
S2140011001B5998476B469B880137B381082FEBD154
S214001110E5E780277F003D4206D0009B3B4201D09A
S214001120A36A9847B781DAE78027BF003D42D6D04A
S214001130009B3B42F6D0E36AF3E7C046641000200B
S2140011400080FFFF07230168CA691A42FCD1704776
S214001150F0B507008BB0396008009F4B14000E00F6
S21400116098479E4A052800D126E1012383400500C2
S214001170D16912350B43D361237B08AAEDB21370F5
S21400118011002800964B98472800964B9847964B98
S214001190207B0021984733681C209B0700D509E177
S2140011A00123356817381D4000D003E18A4B3868A4
S2140011B098478E498E4B04909847049B3D769A003C
S2140011C08C4B7D76D750BB1D7D83BD83DD77142386
S2140011D03D6233603B6809AE049318007E4B984727
S2140011E080230090E06933707F3B7570F570B370B4
S2140011F0256A002803D101007F4B049898470223F4
S2140012003070000C7370C0B231007C4B9847002DD4
S21400121004D101210498784B9847050002233570C5
S2140012202D0C7370E8B2754B31009847A38AFB808B
S214001230E38A3B81227E8023002A06D1704B02324D
S2140012409B7813405F1EBB41DB01A26827691743EA
S2140012501F43631DDB7F002B02D08023DB051F436B
S214001260A36A1F4323002C331B78002B03D1802353
S2140012709B049A4202D180231B051F4323002D3373
S2140012801B78002B02D080231B041F4323002E3321
S2140012901B78002B02D08023DB031F43049B00989F
S2140012A01B68FA251F43049B049A1F608023123094
S2140012B05B005360C0B2534B98472368AD005D4354
S2140012C0636807000593504B98474F4B0090019179
S2140012D068009847029003914B4B208E98474B4EE0
S2140012E00690079100980199494A4A4BB047020078
S2140012F00B0006980799B047474E0022474BB04769
S214001300414B0690079128009847404D02000B007D
S21400131006980799A847424D02000B0000980199CD
S214001320A847029A039BB04700223E4BA847029A62
S214001330039B3D4EB0473D4B984780230290A268E2
S2140013409B049A4244D1FA23059C9B005C43009A76
S214001350019B314E10001900B0472B4B00900191B5
S214001360200098470022324B284EB0472E4E0200EF
S2140013700B0000980199B04700222A4BA8472B4B38
S21400138098472C4B061E1DD021003800984702387F
S214001390831B029A4020FF2A0CD8FF2B0AD8FF2076
S2140013A0150000041B0403400020360635431D4389
S2140013B0049BDD600BB0F0BD0223116A18250B43B9
S2140013C01362D9E66100481EC0199847431EE0E73D
S2140013D000263300DDE7C046D524000000040040A8
S2140013E0992C0000392C00004D230000C117000086
S2140013F0092500006810002091230000712D0000D0
S21400140000200041BD2C0000E5470100CD3B010057
S21400141095D626E80B2E113E452F010000002440ED
S214001420CD4001000000F03F65350100F94601009F
S21400143000000840611B010002220368197E114269
S21400144006D01A765B8B412013420AD1002008E0B2
S2140014505A8B5207FAD5C0221820596892020A43BE
S2140014605A60704770B500220126022401680B7E80
S214001470334002D10D7E254201D0002005E0013226
S214001480038992B29342F2D8122070BD802310B521
S2140014900468DB026268134363606162024B98472C
S2140014A00123237610BDC04665140000F0B504681D
S2140014B085B0236801901B01DB0F4D8803934B7AA0
S2140014C00E00002B02D0897A474B98476368474F37
S2140014D03B406360727A3388317A92035B00134331
S2140014E00122002919D08022120213436362019858
S2140014F03F4B984763683B406360002863D1019880
S2140015003C4B984700285ED178233288717A120ABD
S2140015101343012289035B000A4313436362019865
S214001520334B9847039B0200002B17D07388012B80
S21400153014D180236168DB020B436360002A42D12A
S21400154001982C4B984700283DD1013DAFB20500CD
S214001550294B9F4206D10295002520E063681F4074
S2140015606760EBE72022638B13423AD0019BDB7A5D
S214001570002B04D0039B002B27D1002F27D00198E7
S2140015801E4B98476B1C9BB20293230028331B7894
S214001590726801985355164B9847051E1DD0019B3F
S2140015A0164F9B7A002B06D00198B847C023626876
S2140015B09B02134363600198B847280028342278BA
S2140015C0736802995A5405B0F0BD012FD7D1802216
S2140015D06368D202134363600295013FBFB2029D67
S2140015E0B6E74120EFE7C0468D140000FFFFFBFF83
S2140015F06514000039140000FFFF000045110000CC
S214001600F7B50F004B88050001932A4B04689847EE
S2140016107B7A002B03D0B97A2800274B984763685B
S214001620264A134063607A7A3B88397A5B009203D5
S2140016301343002902D0802212021343636228005B
S2140016401F4B9847061E15D128001E4B9847061EAE
S21400165010D10090009B019A93420DD10026AB7AE0
S214001660002B07D0134B28009847C02362689B02C4
S214001670134363603000FEBD2022638B134216D0F6
S21400168028000C4B98477B68009A28009A5C230039
S21400169028331A700A4B9847061EE0D1009A638BCF
S2140016A00132009204221342D4D01E26D7E74126E8
S2140016B0E0E7C046451100008D140000FFFFFBFF69
S2140016C0651400003914000010B5828B0300052055
S2140016D0002A05D101329A72DA721800014B984737
S2140016E010BDC046AD14000010B5828B030092B248
S2140016F00520002A05D19A720132DA721800014BD1
S214001700984710BD0116000007230168CA691A42EF
S214001710FCD17047F8B5056804002A68468B838BB1
S214001720F61A838BB6B2013B9BB28383C37A12014F
S2140017300AD5002B0DD0838B012B0AD180236A6833
S214001740DB0213436B6004E0002B02D0838B002B7C
S214001750F4D0A38B0A4F002B09D1A37A002B06D016
S2140017602000B847C0236A689B0213436B602000C2
S214001770B847236A28359E192B78DBB23370F8BD3C
S2140017800917000070B506680400738B5B0703D565
S2140017901E230634E37770BD458B838B2836ED1AFF
S2140017A0838BADB2013B9BB28383044B9847236A7D
S2140017B05D192B78DBB23370EDE7C04609170000E1
S2140017C0F8B55E4B8000C4582568A61D2B68627E5F
S2140017D0277E1B011740628BDB0F002A2ED1A28BBF
S2140017E0002A2BD001232A7E1A4206D002222B760C
S2140017F06B8B134010D04123F377A38B9BB263838C
S214001800F37F052B3CD1631DDB7F2000002B00D02F
S2140018108AE04B4B984733E06A8B5207EDD5182287
S214001820F277A383A37A002BE7D0464B2000984795
S214001830C0236A689B0213436B60DEE7628B002A54
S2140018405FD0A28B002A5CD1F27F052A59D1621D97
S214001850D27FD2B2002A54D103232B756283F2774B
S214001860A37A002B4AD0374B20009847C0236A68DB
S2140018709B0213436B60FB0702D5E3682000984782
S214001880638B002B1BD0A38B002B18D1F37F052B6B
S21400189015D1631DDA7F012A11D1297E013211424A
S2140018A000D02A7603222A7500226283F277BA07CE
S2140018B03CD5DA7F012A39D1236920009847F37F87
S2140018C0052B1AD0F37F002B17D003232B7500238C
S2140018D06383A383F37F412B0AD0A37A002B07D020
S2140018E0184B20009847E0236A68DB0213436B60BE
S2140018F07B0702D5636920009847F8BD01232B7645
S214001900B9E7628B002ABBD0A28B002AB8D06A8BBC
S214001910920600D577E7002B03D0A38B012B00D1CE
S21400192071E74123F377ABE7074B73E7FA07C6D5B2
S214001930DB7F002BC3D1E368BFE7C04668100020FA
S214001940851700000917000015170000036805201A
S2140019501A7ED20703D50020C905C90D99627047C3
S214001960002210B54309C409944202D1DA01064B9D
S214001970D2181F2318401E3B8340002901D09361D4
S21400198010BD5361FCE7C0460028004030B5042473
S214001990036810221D7E25420CD05D8B0022254256
S2140019A001D05C831E3280799B6A012804D1DB0556
S2140019B0DB0D0B80100030BDDBB2FAE70300F0B59C
S2140019C0022719600B688BB001900D0014003B4293
S2140019D000D187E00026936A013F0693D36A0793F7
S2140019E0136B0893536B0993B30006AA9858F1B289
S2140019F0002802D128008F4B9847431C2CD083B276
S214001A00000CC0B20393C2094309002A00D00BE1C0
S214001A101F21894ADB019B1801405A180293403265
S214001A2012789446634680223B4208D0029B4908BF
S214001A305B1830331A78D2B238420AD01209039BA8
S214001A40934209D00023019A13601C3318000BB090
S214001A50F0BD0F231A40F2E70136042EC4D1774BAF
S214001A6011209847237801000022012B0DD105AEE6
S214001A70734B3200A069984717230028E6D12A7BCB
S214001A80317805339142E1D10C22A16863680B439B
S214001A90E1680B43617C1343227C002901D080213E
S214001AA00B43A17C002902D0802189020A43E17CF5
S214001AB0002902D0802189000A43217D002902D016
S214001AC0802189010A43022128680B438342B9D149
S214001AD06B689342B6D12378019A5371237C937135
S214001AE00023B3E701260A6805233242AED1554BE0
S214001AF008009847544B052800D190E08640020025
S214001B00D96912320E43DE61671DFB7FD6B204A987
S214001B100B7030004D4B984730004D4B98474D4B5F
S214001B20F87F002198472378012B03D12A680B33CE
S214001B3013432B60019B05AD1E6880232B7000238A
S214001B4001226B70EB702378AA70002B00D1AB706B
S214001B500027A36A0693E36A0793236B0893636BD5
S214001B600993BB0006AA9858F9B2002802D13000A3
S214001B70304B9847431C05D02870000CC0B2290093
S214001B80354B98470137042FEBD12378019A5371D0
S214001B90237C9371A37CD371237D137204AB9D1CAD
S214001BA000232B802378012B11D11068254B9847F2
S214001BB01230224BC0B29847214B01002A00A06980
S214001BC098471723002800D040E72B783373A36884
S214001BD06268617C1A43E3681A43237C002903D1B8
S214001BE01E498978890701D580210A43A17C0029EE
S214001BF002D0802189020B43E17C002902D080219B
S214001C0089000B43217D002902D0802189010B43E6
S214001C1031680A43326072681343736060E71A6A79
S214001C2017431F6218226FE71F23184040300378BF
S214001C30FFDEC0469123000000280040BD2C0000B7
S214001C408D220000D524000000040040992C0000DE
S214001C50392C00004D230000712D000000200041AB
S214001C6073B50E004179050014001520012903D133
S214001C702A7A002A01D0002076BD3078144B002C3A
S214001C8022D07478002C1CD02C68247E0C4202D102
S214001C9098470520F0E7110098470E4BB1782800CA
S214001CA09847EB79002BE6D1296804330A7E1A425E
S214001CB0FCD06B460024991D2800074B0C809847E3
S214001CC0D9E721009847D6E798472000D4E7C046D2
S214001CD0611900004D1900008D190000F0B50700CD
S214001CE093B0A64B3960080014000491984701236E
S214001CF00200052855D0050001001235049800683A
S214001D008446664605201E4200D014E1049800680A
S214001D10844666461C20B60700D50CE198488B40E2
S214001D20052A41D1026A1343036223002D331E00A5
S214001D301B780CA9EDB20B702800924B9847280030
S214001D40914B98470021914B30789847E37A7B7106
S214001D50631DDB7FBB71A31DDB7FFB71E37E3B72E4
S214001D60237F7B723B6803931800844B98471823A5
S214001D70052801D00300123300250EAA1580228AFA
S214001D800826029280220299D20191421BD00FD8D7
S214001D90802210269201914200D1CFE01026002525
S214001DA011E018251900A9E7C2691343C361BCE70F
S214001DB0C0220299D201914200D1BEE080220326C1
S214001DC012029142EAD122680692E268079262699C
S214001DD00892227E0992E21DD27F0A9262680592DC
S214001DE0220005990832002900D1A9E08021059833
S214001DF0490588420ED1D27F002A0BD1D8B2644B57
S214001E00256A98470EAA0100624B280098470028CA
S214001E1000D090E0637E002B02D0A37E039A9373DB
S214001E200EAE3388039A9381079A069B1343089A4B
S214001E301343059A1343029A1343099A1202134353
S214001E400A9A5207134322000832D27F002A01D191
S214001E5004321343627E217F920249020A43617F65
S214001E60E07A09020A43611DC97F49040A43A11D9D
S214001E70C97F09040A43A17A01430A432189FF293D
S214001E8000D173E08020400403430A4321002C3134
S214001E900978002903D140498978890701D580212E
S214001EA00B433868C1690029FCD103994A60396838
S214001EB0CA69002AFCD103990DAD0B6080232B70F4
S214001EC0236B6A700E93636BEA707360A36BAA70E1
S214001ED0B360E36B1400F360A300F058E1B200288F
S214001EE002D104982D4B9847431C05D02870000C4F
S214001EF0C0B229002A4B98470134042CECD13B0091
S214001F0000243033FC85FC603C617C61BC61FC6174
S214001F103C62BC627C62BC859C701C705C70DC7031
S214001F203868164B984705001E4B1F4998472000F7
S214001F301E4BAD00EF5013B0F0BD0826012542E75A
S214001F40D27F002A07D02B000096A16A206A0EAA2C
S214001F50174DA8475BE7226AD8B20D4B0B929847FD
S214001F60009601002B000EAA0B98F1E7E17E0029EF
S214001F7000D18BE78021C9040B4387E7D5240000F6
S214001F8000040040992C0000392C00004D2300006E
S214001F90BD2C00008D22000000200041912300008F
S214001FA0712D000009250000B920000068100020EF
S214001FB0B5220000C2791C23002A0AD0C28D173B26
S214001FC0002A06D1036802321985197E1142FCD018
S214001FD000231800704710B582791C23002A11D000
S214001FE0828D173B002A0DD102680420147E04421D
S214001FF008D0538BDBB29C061DD00224234203D0AC
S2140020001A235483180010BD034202D050831E23A7
S214002010F8E70120034202D050831323F2E7102092
S214002020034202D050834223ECE72020034202D032
S21400203050834123E6E7138D0B800023E2E7000080
S214002040F0B585B00600009115001720002A28D0AC
S214002050B3790530002B24D0002433680193802305
S2140020605B020421019A127E0A421CD002AB9F1D1D
S214002070002339003B8030000E4B9847002810D1D3
S21400208000993A88631C0A5571799BB201290FD1D1
S21400209000990234120AA4B2CA54013DADB2002D12
S2140020A0DDD105B0F0BD013B002BDAD11220F8E7F8
S2140020B01C00F2E7D71F0000F8B5584B8000C45844
S2140020C02568EB69002BFCD12B7EAF7D1F402300DB
S2140020D030331A785E78012316401F4219D0E28DFD
S2140020E0002A00D172E0A26A511C1378A1626179BD
S2140020F0DBB2012964D09BB2DB05DB0D2B85E38DBB
S214002100013B9BB2E385002B03D101332B750133D2
S214002110AB7502231F4209D02B75230000223333F0
S2140021201A70F30702D52000E368984704231F427D
S21400213027D0A28D002A00D16DE06B8BDBB21A0788
S21400214046D43F22134045D002221A2113420FD113
S21400215004221E2113420BD101221321134207D160
S21400216010224221134203D12022134204D04121DF
S2140021702300323319706A83730702D5200063691F
S214002180984710231F4206D02B752B761E4202D08E
S2140021902000E369984720231F4206D02B752B7634
S2140021A0330702D52000A369984708231F4206D0AC
S2140021B02B752B76B30602D5236A20009847F8BD08
S2140021C05178023209020B43A26295E72B75A0E70D
S2140021D03722B7E72B8D616ADB05DB0DDAB20A70B2
S2140021E0626A511C61626179012904D11B0A53702D
S2140021F0636A01336362A38D013B9BB2A385002B08
S214002200BFD104222A75220032321370B307B8D524
S21400221020002369B4E72B75B3E7C046681000209A
S214002220F0B5002489B0009201933F2300260027D2
S2140022302500069007910393039A134B0120002173
S2140022409847B6197F41069B079A03400A400496B2
S2140022500597134303D0012333431E00059F019BBC
S214002260BB4209D802D1009BB34205D8009A019B15
S214002270B61A9F4104430D43039B5A1E0392DBD2BA
S2140022802000290009B0F0BD4D1E010010B5490818
S214002290040000234020A14201D210BD0300581CB8
S2140022A0091B80B28C42F9D94020FF2BF5D8138049
S2140022B00020F2E7F0B585B01E000AAB0D001978D5
S2140022C003004B4303924027AB4217D8002E18D189
S2140022D00200330008001B4C3100A0472A00010012
S2140022E03300194C3000A04700220123121A8B41FC
S2140022F0140C180404430027039B1C80380005B008
S214002300F0BD0024012EF6D10A00230021000D4E58
S214002310B047009001910B000200210028000A4CF3
S214002320A047802306009B019842E7D8009A019BAD
S214002330690FE800A047F400041BE4B264033443CA
S214002340D9E7C046191F01002122000037B50D4C01
S21400235005002378002B01D000290CD001A91120FC
S214002360094B0D7098471120084B98470123002011
S214002370657023703EBD63780800AB42FAD01D201E
S214002380F8E7C046380A0020992C0000392C0000D7
S214002390364A030000B50800934234D008D8842299
S2140023A0D205934214D0324A93421FD0002317E03E
S2140023B0304A93423AD0304A93423FD02F4A934213
S2140023C0F4D1002303290BD80FF0B6FB4B2A2C2E92
S2140023D00023032904D80FF0AFFB3E020507284B65
S2140023E0180000BD274BFBE7274BF9E7002303291E
S2140023F0F6D80FF0A1FB32020406244BF0E7244B7C
S214002400EEE7244BECE700230329E9D80FF094FB12
S21400241027020406204BE3E7204BE1E7204BDFE7EB
S214002420204BDDE7204BDBE7204BD9E7022903D022
S2140024300329BBD11E4BD3E71E4BD1E7002303294C
S214002440CED80FF079FB100204061B4BC8E71B4BD7
S214002450C6E71B4BC4E71B4BC2E70323C0E71A4B78
S214002460BEE71A4BBCE71A4BBAE7C0460008004264
S214002470000400420010004200040043000C00422A
S2140024800300050003000600030007000300010028
S21400249003001E0003001F000300090003000A00DB
S2140024A003000B00030011000300120003001300DA
S2140024B003000F0003000E000300170003001800BF
S2140024C003001900030004000300080003001000C6
S2140024D00300160070B586B06946094B6A4670CB95
S2140024E070C170CB70C1002399005158814202D14F
S2140024F0D8B206B070BD0133062BF5D10020F8E740
S214002500DC9C010070470000F0B5094C094A2378AE
S214002510002B09D11E00084F084DD750EE5004334B
S214002520182BFAD1173B237080001150F0BDC0461F
S2140025303A0A00203C0A002005250000681000200A
S21400254007B508236A46137001335370013393703E
S2140025500133D3700133137101335371024B984723
S2140025606B4618560EBDC046D524000010B5024B6B
S21400257000201B68984710BD3C0A002010B5024B8F
S21400258001205B68984710BD3C0A002010B5024B3E
S21400259002209B68984710BD3C0A002010B5024BED
S2140025A00320DB68984710BD3C0A002010B5024B9C
S2140025B004201B69984710BD3C0A002010B5024B4A
S2140025C005205B69984710BD3C0A0020802303491C
S2140025D05B00CA681A42FCD07047C046000C004038
S2140025E08023DB059A78824202D1002108007047DA
S2140025F09A78172152B2002AF8DB01229A71987055
S2140026009A79002AFCD0F0E770B5082806D80FF0B3
S21400261093FA0805052E2E130B162600002420001C
S21400262070BD154B1C69FAE7144B1C7D2407A40FDC
S214002630601C134C4443F2E70F4B5C69EFE70E4D0A
S21400264000242B689B07EAD50E4B98472B685B0740
S21400265010D520000C4B9847AC68A4B2EAE70B4BA9
S21400266000241B789B07DAD5034BDC68D7E7802469
S2140026702402D4E7064CD2E7540A0020000C00409F
S21400268000093D00CD250000BD2C0000280C0040B0
S214002690006CDC0230B503250A498478427800785D
S2140026A00B7D28400935AB438000034301200240E0
S2140026B03F309201834313437F22E40113402343B8
S2140026C00B7530BD000C0040F7B51E4B42780778FE
S2140026D09C465B6901927A425741827A8578C67831
S2140026E0417A047A00924068174A5061B80004277D
S2140026F00122BB431843082316409843F6000643BE
S21400270015402F013500DB189D433D431440A601BC
S2140027102C00114030339C43CB01802134438C4342
S2140027202100194307230198084C03401B0221404F
S2140027301943009B1A401303054A0A401A4363468E
S2140027405A61F7BD00100040540A0020FFF8FFFF52
S214002750FFEFFFFF10B5837A82899B069205920DE4
S2140027601B0C1343184A5360417A037AC4880B4300
S214002770818821430B4341780478C9010B43817853
S21400278089010B431360042C0DD1837B418A9B0681
S2140027900B43018A0D48090401400B4393601368FC
S2140027A01C43146010BD202CFCD1837B418A9B0601
S2140027B00B43018A0548090401400B4393601168E6
S2140027C0034B0B431360EDE7540A00200000FF03A1
S2140027D024040000F8B508283DD80FF0ADF9123CE7
S2140027E03C0A0C18051E320002231C4A117D0B43BE
S2140027F0137500202EE00223194A91690B4393615A
S214002800F7E70223154A118A0B431382F1E70223E6
S214002810134A51690B435361EBE702220024114E21
S2140028200E4D3368104F134333602A83B847B3689E
S2140028302B627368EB612C83B84733689BB22B839B
S214002840D7E7022309490A781A430A70084A10781B
S2140028501840FCD1F8BD1720FCE7C046000C00402D
S21400286000100040540A0020CD250000280C00402F
S214002870380C004000B508282FD80FF05DF9122E4E
S2140028802E2E0C18051E28000221154A137D8B4398
S2140028901375002000BD0221124A93698B43936191
S2140028A0F7E702210E4A138A8B431382F1E70221CF
S2140028B00C4A53698B435361EBE702210A4B1A68B3
S2140028C08A431A601B68064A9BB21383E1E702211B
S2140028D0064A13788B431370DBE71720DAE7C04607
S2140028E0000C004000100040540A0020280C004055
S2140028F0802303221E21F0B504255D4F5B00BB60DC
S2140029005C4B8DB09A605C4A0220536801268B436C
S2140029102B435360594B98470023802201A812028C
S21400292003708370037283724372554B4260C670A5
S214002930457098470520534B9847534AD36833420F
S214002940FCD00025032307AC2100237028004F4B42
S214002950666065702572657298474D4B06209847ED
S21400296004A84C4B4570067085709847454B06206A
S21400297098471023FA681A42FCD0012300256360AA
S214002980053323702100414B28006570257265725F
S21400299098473F23A3813B3B23703F4BA580E580B0
S2140029A025726572A57065701B689B0E3F2B00D163
S2140029B0203BA372B723DB0063820723A3733F2366
S2140029C020002382354B9847354B98470126052330
S2140029D0002504AC2100237030002C4B6660657027
S2140029E065722672984730002E4B98470623237050
S2140029F0013B210063600220244B657025726572DE
S214002A0098470220274B984721002800264B26701F
S214002A1098472800254B984707201A4B9847D022FE
S214002A201201FB6813409342FBD101230025204E80
S214002A302100B3717371337106332370013B6360F9
S214002A402800124B65702572657298472800154B52
S214002A509847184B280098473179174BC9B29847C2
S214002A60164B984202D82800044B98470DB0F0BD8C
S214002A70000C00400014004000400041E12500002A
S214002A80C9260000D527000000100040012B0000DA
S214002A90752800009526000020608000552700005D
S214002AA0E12A0000992B0000992C0000392C000028
S214002AB000040040D12B0000611B0100001BB70082
S214002AC004228240044B05485B6818401040431EB1
S214002AD09841C0B27047C04600180040FC0700008E
S214002AE04023054A51690B4353610123034A13707F
S214002AF011781942FCD170470004004000180040CD
S214002B0070B54B7805000C78002B02D08023DB00D4
S214002B101C434B7A002B02D080231B011C434A68BF
S214002B20012A13D9531E13400220002B07D08023FE
S214002B3012049B001A43144308E0013340009042FD
S214002B40FBD38022520114431B041C430B7A002B38
S214002B5002D080239B011C4328000B4EB047002860
S214002B60FAD10A4B98478021094BAA00D218136A5B
S214002B7049000B401C4314622800B0470028FBD1D4
S214002B80044B984770BDC046C12A000015010000DE
S214002B90001800404901000010B504002000084B52
S214002BA098470028FAD1074B9847074BA400E4182B
S214002BB08023226A5B0013432362044B984710BDB0
S214002BC0C12A00001501000000180040490100005D
S214002BD0F8B504002000124B98470028FAD1114F90
S214002BE00834A400104B9847E059104B0007000F1C
S214002BF09847E659E459F6040D4BF60F0500240CE9
S214002C009847002E08D1012C04D928002100094B32
S214002C10984705002800F8BD0134E540FAE7C046AD
S214002C20C12A000000180040150100000926000017
S214002C3049010000611B010010B50400074B9847CE
S214002C40074BA000C11840230800CA6F1A43CA6782
S214002C50C26F1A42FCD0034B984710BD1501000006
S214002C60041800404901000010B50400074B9847BF
S214002C70074BA000C11840230800CA6F9A43CA67D2
S214002C80C26F1A42FCD1034B984710BD15010000D5
S214002C90041800404901000070B50D00054B040003
S214002CA098470F222B7820341340034AA400A350E1
S214002CB070BDC046692C00000018004010B5040026
S214002CC0064B98472034064BA400E458054B2407CF
S214002CD0240F98472000044B984710BD15010000AC
S214002CE00018004049010000D12B0000D37830B511
S214002CF0002B35D11478802C03D0802324065B0269
S214002D00234302255478AC4306D19478002C24D172
S214002D108024A402234341605478013C012C01D84E
S214002D20124C2340A0248DB2E4052C431C4384623D
S214002D30D0240D0C24062C431C438462D478002C2B
S214002D400AD15B0303D59378012B0CD181615378AC
S214002D50013B012B00D8816030BDC024E402D9E7D6
S214002D6041600023DEE74161F1E7C046FFFFFBFF5D
S214002D7010B503000A004409C1090020814202D1AF
S214002D800449E00140181F210B401E399940024BB0
S214002D90984710BD00280040ED2C0000704700004A
S214002DA010B5054B9847054B9847054B9847054B7C
S214002DB09847054B984710BDF12800001102000007
S214002DC09D2D0000A10800009D2D000000B51723D2
S214002DD0042809D80D4B0EF0AFFE03090D1115009F
S214002DE05A69114359610023180000BD9A691143BE
S214002DF09961F8E7DA691143D961F4E71A6A114371
S214002E001962F0E75A6A11435962ECE70004004081
S214002E1070B586B001AA1100084B70CB70C130CBDC
S214002E2030C1002399005158814202D1D8B206B071
S214002E3070BD0133052BF5D10020F8E7F49C0100A6
S214002E40F0B5964B050091B008000E0014009847A8
S214002E501B2302AA1372537201339372D372013387
S214002E6013738F4B0190143306AA83CB83C283CB94
S214002E7083C283CB83C21B6813600023AB60EB6006
S214002E802B616B612B766B76019B9A00854BD55038
S214002E9023002E6034331B78AB76E378082B04D1FE
S214002EA0019A1720D20700D5E4E001222B7133687F
S214002EB00520134200D0DDE00221F37A17300B42E2
S214002EC000D0D7E033680B4000D0D3E0217C002947
S214002ED008D003A9CB70237E207D0B70724B8A70BE
S214002EE04A709847237F002B0ED00022012303A9A7
S214002EF0CA7024328B70A2184B701F33E3181278F6
S214002F001878694B0A7098471020019A02A9D200D7
S214002F10091888581021019B02AA5F007B1C9B00A1
S214002F205218D158C0B2614B9847E378082B10D19D
S214002F30019B032B0DDC1021FB1C02AA0237521842
S214002F40BF00D05902AA9B005218D158C0B2574BA6
S214002F509847237802AA137008211300019A5B1879
S214002F609F5C02A93800524B9847524B380098474E
S214002F70E279E3781343A2881343627A002A02D0E8
S214002F80802252021343A27A002A02D080229202A2
S214002F901343E27A002A02D0802252031343227B94
S214002FA0002A02D08022920313436278A17892010D
S214002FB0C9010A43296813430A69002AFCD1336011
S214002FC02A681369002BFCD1A3793373637B5A1EDE
S214002FD09341A27B9B00002A01D00122134329685B
S214002FE00A69002AFCD1FF323271002B04D029680E
S214002FF00A69002AFCD17371237A73732B681A69E5
S214003000002AFCD12A79042A16D0082A34D01720A0
S214003010002A2FD11A69002AFCD1238DB3822A6890
S2140030201369002BFCD1638DB3832B6818690028C5
S214003030FCD1A38DF3831DE01A69002AFCD123007E
S21400304028331B7833752A681369002BFCD12300BC
S21400305029331B78F3762A681369002BFCD12300EA
S2140030602A331B7833772B6818690028FCD12B3459
S2140030702378737711B0F0BD1A69002AFCD1A36AD1
S21400308073612A681369002BFCD1E36AF3612B682D
S21400309018690028FCD1236B3362EBE7112E000081
S2140030A0F49C010080100020712D0000CD2D000042
S2140030B0992C0000392C000003681A69002AFCD1FC
S2140030C01A7101680A69002AFCD180325A710268B6
S2140030D01369002BFCD10179042907D0082908D0F0
S2140030E01800002904D1908A80B201E0107DC0B299
S2140030F070475069FCE770B5040003681E69002E2F
S214003100FCD12579042D10D0082D21D01720002DB4
S21400311018D11720012915D8A07E92B2002812D007
S21400312018314900CA5228000CE01720012909D896
S214003130A07ED2B25918002803D030310A70300071
S21400314000E00A7770BD0C3149005B189A80F9E7F9
S21400315017200129F6D8A07E002803D00C3189005C
S214003160CA50ECE70631890059184A60EAE7931C12
S2140031709B001950037E022A04D10E3213430376B5
S21400318000207047032A01D11D32F7E70121914044
S2140031900B43F4E770B50126144B8000C45823682F
S2140031A0227E657E9B7A15401D40354204D0A3687A
S2140031B02000984723689E720226354204D0E368B2
S2140031C02000984723689E721026354204D0236953
S2140031D02000984723689E722026354204D06369F3
S2140031E02000984723689E7270BDC046801000205D
S2140031F010B50020014B984710BDC0469531000021
S21400320010B50120014B984710BDC046953100000F
S21400321010B50220014B984710BDC04695310000FE
S21400322010B50320014B984710BDC04695310000ED
S21400323010B50420014B984710BDC04695310000DC
S2140032401148124970B5884204D00023104CCA18A1
S214003250A24213D300210F4B0F4A934212D3FF21F1
S2140032600E4B0F4A8B43936080230E4A51680B43E4
S21400327053600D4B98470D4B9847FEE7C5580433EF
S2140032801560E4E702C3E8E74CB401000000002044
S214003290100A0020100A00200C2100200000000068
S2140032A000ED00E000400041194D0100F1B50000BE
S2140032B010B5024B02489847FBE7C0466154010030
S2140032C0309D010070B50E0014001500002808D0CF
S2140032D0012040420CE0074B013D1868064B1B6876
S2140032E09847611B7118002DF5DCE043C01720409D
S2140032F070BDC0469C10002094100020013870B5A8
S2140033000E0002280DD80C008D18A01BAC420AD067
S214003310054B21781868054B01341B689847002830
S214003320F3DA0120404270BD9C1000209810002067
S214003330054B02001968002901D104491960186874
S21400334082181A607047C0466C0A002010410020A0
S21400335001204042704780239B0100204B6070474D
S214003360012070470020704773B56B469C1D0023F4
S21400337006000D00238021003000034B98470028EC
S214003380F9D123882B7073BDD71F000070B50400D9
S2140033900D00A9B22000024B98470028F9D170BD55
S2140033A0B51F000037B56B46DC1D012221000D4B12
S2140033B00D48984772B6BFF35F8F00200B4A2578FA
S2140033C00B4913780B4C0870E5547F2B06D1107010
S2140033D001230B70BFF35F8F62B637BD01331370E6
S2140033E0F6E7C04641200000700A0020240B0020AB
S2140033F000000020A40A0020024B1A68D369002BA4
S214003400FCD17047700A002010B5094B1C68094BA8
S214003410200098471F2318401E3B8340064A13602F
S214003420064B9847022322681343236010BDC0460C
S214003430700A00204125000000E100E0F93300009A
S21400344010B5094B1C68094B200098471F231840ED
S2140034501E3B8340064AD367064B984702222368E2
S2140034609343236010BDC046700A0020412500002B
S21400347004E100E0F93300008023F0B5DB0591B0ED
S2140034806A460093FF23138196239B0108936B469D
S21400349001260533DE776B460633DE776B4600245F
S2140034A00733DC7702ABDC770BAB1C702D236B4449
S2140034B01C701323937680235B030393294B84218C
S2140034C00C93294B294D0D9301235B420E930F93CA
S2140034D0274B9472D4721482D4761476147754766A
S2140034E054771D60234A244B01940A9405941A606D
S2140034F0224A234BC9051A6028006A46214B984782
S214003500214F21003B689868204B98473B68210074
S21400351058681E4B98471E4B98471E4B2F68984777
S21400352080237A685B0213437B601A4BEE719847E0
S214003530184B2F68984780237A689B0213437B605A
S214003540144BAE71984714492000144B98478422B8
S2140035500423D20593758022114B52001A6011B0D5
S214003560F0BDC0460300040003000500700A0020FA
S2140035709C1000208D330000981000206933000056
S21400358094100020DD1C000064000020A5550100FA
S21400359009340000F9330000A533000009250000B7
S2140035A000E100E0F8B50A4B98470A4C0A4F256838
S2140035B0B8476B68094A266813406B600025E571BA
S2140035C0B8477368064A13407360A571F8BDC046D5
S2140035D041340000700A0020F9330000FFFFFEFFB0
S2140035E0FFFFFDFF012802D002280BD07047802382
S2140035F00422DB055A705A78042AFCD1BFF34F8F99
S21400360030BFF3E780230522DB055A705A78052A77
S214003610FCD1F3E71FB501226B4669469A7000237A
S214003620074CCB700B80013B0A7102936A460393EA
S21400363004492000044B98472000044B98471FBDC0
S214003640A0100020002000406D0F00000D0E0000AE
S21400365010B50248024B984710BDC046A010002087
S214003660ED0E000070B50E0005000A4C002120008B
S214003670094B9847310008222000084B984729003C
S21400368000222000064B984708212000054B98474B
S21400369070BDC046A0100020AD0E0000091000004E
S2140036A0150F00004110000010B508210148024B1C
S2140036B0984710BDA01000207D100000012307B51C
S2140036C0002201A94B700B702F20024B8A7098477E
S2140036D007BDC046E10D000010B5044C2368002B62
S2140036E003D0034B98472368984710BD300B002043
S2140036F06D3B000010B5044C2368002B03D0034B31
S21400370098472368984710BD2C0B00206D3B00009F
S21400371010B5044C2368002B03D0034B984723684E
S214003720984710BD280B00206D3B000010B5012205
S21400373002490348034B984710BDC046D8100020E6
S214003740340B0020611C000010B50022024903481B
S214003750034B984710BDC046D8100020340B0020FD
S214003760611C0000012210B511490B681C7E144232
S214003770FCD01C7E144200D098620222187E1042B2
S214003780FCD00422187E1042FCD01C7E002014427E
S21400379009D0588B104200D05A838A79986A012A39
S2140037A003D1C005C00DC0B210BDC0B2FBE7C04615
S2140037B0340B0020F0B50025012791B001AC2100A4
S2140037C05220534B6770A5702770984721003E2003
S2140037D04F4B984721003F204D4B984721002F2004
S2140037E04B4B984780224B4BD2029A6180224A4B21
S2140037F0D2051A60802212061A6080221202210068
S2140038001A6053202570424B02AC98472000434B69
S214003810984730230B26029321002800404B656012
S2140038202572E77298472A0029003E4B3E48984783
S21400383029003E4B2800984730002100384B02965E
S21400384065602572E77298472A003100354B384884
S214003850984729003000354BF6199847210030006C
S2140038602F4B029665602572E77298472A00310052
S2140038702C4B3048984729002C4B300098473F2067
S2140038802D4B210018705D709D70214B6770A570E0
S21400389027709847284B1A785309D109A94235D181
S2140038A01F2002403800904002002448DB011B180D
S2140038B09A610D236B44D9773200214B08A86160CA
S2140038C0A1602174617421752770A774E774984706
S2140038D01C4B1D4DA36180235B02E3601B4B220043
S2140038E0A36201235B42E362194B1A4923631A4B16
S2140038F028006363194B98472B68DA69002AFCD1C5
S214003900196802320A431A6011B0F0BDAD61FFDEDD
S214003910E10D00000029004098280040F90800004A
S2140039200D0900009109000011370000B9090000D8
S214003930F5360000D9360000D810002000280040D8
S214003940AD53010080841E00340B00200500530098
S21400395005003E000010004205005200BD190000A0
S21400396006490B68DA69002AFCD11868023202435D
S2140039701A600A68D369002BFCD17047340B00200C
S214003980064B1B68DA69002AFCD102218F321A75B1
S2140039901A761A688A431A607047C046340B0020AD
S2140039A073B50C4C0C4DA847802623003602943382
S2140039B01E600120094B98470023012201A90B70C5
S2140039C08B702F20064B98344A7098472660A8477D
S2140039D073BDC04600280040BD3600003D3B0000D9
S2140039E0E10D000070B5064B0D00040098478020DE
S2140039F02043044CA0472800A047034B984770BDBF
S214003A002D370000653700004937000010B5074B1A
S214003A10040098477F202040054CA047FF20A04781
S214003A200400044B9847200010BDC0462D37000008
S214003A30653700004937000070B5094B06000C00DA
S214003A401500984780203043064EB0476519AC42B3
S214003A5002D1054B984770BD2078B0470134F6E791
S214003A602D370000653700004937000070B50600A6
S214003A70084B0C00150098473000074EB0476519F4
S214003A80AC4202D1054B984770BDFF20B04720706E
S214003A900134F5E72D370000653700004937000090
S214003AA0022805D0042806D0044B012801D0704710
S214003AB0034B1960FBE7034BFBE7C046280B0020CF
S214003AC02C0B0020300B0020012801D0002904D147
S214003AD08022064B92019A6170470228FCD1012988
S214003AE0FAD18022014B92015A61F5E70028004086
S214003AF0012801D0002903D18022024B92015A618D
S214003B007047C046002800400220704700207047DB
S214003B10802210B5034B92009A610220024B984710
S214003B2010BDC04600280040E50100008022024B80
S214003B3092005A617047C0460028004010B5034BFB
S214003B40002801D10120024B984710BDE501000076
S214003B50B901000010B5014B984710BD15010000D3
S214003B6010B5014B984710BD49010000F8B5144B3D
S214003B701A78012A23D100221A70124B9847124B4A
S214003B809847124B12499847124B984706000F0069
S214003B90114B9847114B300039009847104C23685A
S214003BA0002B0CD09D68002D09D0FA22002392002D
S214003BB0300039000B4EB047A84700232360F8BDFD
S214003BC0400B002051360000B92E0100612801008C
S214003BD0D723F4419D1F0100A936000039A000003C
S214003BE0440B0020D91E0100F8B5051E01D10020A7
S214003BF0F8BD294F3E78002EF9D1284B9847041E71
S214003C0006D0274A2B689B18264A9A427641F4B279
S214003C102B79022B0CD10022944204D0224B9847D9
S214003C2001304242424114002E68002CDFD00CE0E6
S214003C30012B2ED11C4B9847431C1DD11B48002C32
S214003C40D5D02E68864200D90600194B984730001A
S214003C500124184B0A3898471749184B9847184BB1
S214003C6098471849184B9847184B3C701D602879A0
S214003C70174B98472000BBE7002CB8D0FA21154B0D
S214003C80890098470024064B064AC3189A426441A6
S214003C90D5E701267642C8E7400B002075A1000054
S214003CA018FCFFFFC8BBCE070D9E0000B0BFCE07B6
S214003CB019A00000B92E0100751303426128010007
S214003CC06D1F01006D3B000065360000440B0020B0
S214003CD0E5350000611B0100704700000322F0B5C7
S214003CE08C4C89B0E31DDA7710239C4662468A4BDB
S214003CF003901A702300012229331A702300012230
S214003D0086480833DA77020A6271020CA271020E44
S214003D10E271834A0225110A22706170110C120E9C
S214003D20E270804AA1701278207122727E4A322791
S214003D30120A62727C4A0023120CA2727A4A120E8F
S214003D40E2727A4A110A22746174110C120EE2743D
S214003D50774AA174110A22756175110C120EE2756C
S214003D60744AA175110A744E6176110CA176110E73
S214003D70E176310A6173310CA173310EE173E11CF7
S214003D80CD77211DCD771621494261771C31A17769
S214003D903131E1776119CD77611CCF770721671D37
S214003DA0F977A71DFB7727002C37397027002D37AA
S214003DB039702100674628310F70E02149006554AC
S214003DC05E4922760F782377BC4668276146FF3720
S214003DD0E1555A4926734F781770220089783C328D
S214003DE0117022003832137022003932137022000C
S214003DF03A32137022003B321370220042321370A4
S214003E0022003E32137053709370D370E12201216A
S214003E105200A35C0A270B432B43A3546A46230095
S214003E20127B2E331A70039B063B082B49D8444F4F
S214003E3004224449B847182243493B48B8470C2255
S214003E4042493000B84742492A004248B847FF2056
S214003E5031490023CB569D424CDBC2231022FF3350
S214003E60E254637820781B020343A0783A499040D6
S214003E700343E078303200061843B8470420374B37
S214003E80374AE0540023A354A2185070842201211C
S214003E909200A154A2185070324A4918A154A21890
S214003EA0507083229200A354A2185370032204ABCE
S214003EB01A712D4A2D4900922D4B059A2D4DA84773
S214003EC008272D4B1A78002A01D101321A702B4B85
S214003ED098472B4B98472B4B98472B4A214BA05C77
S214003EE0E35C00021843C1B2284B000A984738002A
S214003EF009B0F0BD6279237912021A43A3791B0434
S214003F001A43E3791B0613436A00D3180135587029
S214003F10EDB29EE7EE120020181300207113002069
S214003F2031130020449D01009113002051140020FD
S214003F30221300202B130020B1140020EA120020C8
S214003F4029530100609D0100489D0100A69D0100C7
S214003F50A49D01009B140020649D01000B0200003C
S214003F600E02000012020000D93C0000DB10002008
S214003F70B49D010049930000480B0020BD7F00005F
S214003F8025870000B589000013020000E9910000B3
S214003F90704700000322F0B5724C89B0E31DDA7753
S214003FA0230045322A331A70230003906E480833E4
S214003FB0413ADA77030A6371030CA371030EE371C7
S214003FC06A4B08261B7838212370694B00251B0A8C
S214003FD06370674B40271A0CFF23A270644A207157
S214003FE0120EE270A21CD377E21CD677221DD6777B
S214003FF06022524294462277702262773722E27716
S214004000621CD1770622611DCA77A118CD7754218C
S214004010FF316754013166545021FF316554013138
S214004020A677625452224439FF32A654FF39013231
S214004030A1545622FF32A65422004432FF323539AC
S21400404051704C399170AA311570D17022004832E7
S214004050FF3220371770DA3F577011379770D170DC
S214004060220061464C32FF321170702151703721A8
S2140040709670D1703F4A110019402175110A61757A
S214004080110C120EE2753C4AA17513402376130AF2
S2140040906376130CA376130EE376230005212C33E8
S2140040A01970230049182D33197023001431283352
S2140040B019705823FF33E554304B197811702200DD
S2140040C05B783C321370230038331D70230039337D
S2140040D01D7023003A331D7023003B331D702300F0
S2140040E042331D7023006A463E331D705D709D701E
S2140040F0DD702300127B2E331A70214F9022214947
S214004100B847702220491A48B847AB235B00E554ED
S2140041101E4B0122E6541E4B1E49E554E3185E7002
S21400412084239B00E554E3185D701B4B3000E55478
S214004130E3185D7083239B00E254E418921804ABE6
S2140041401A71164A6670164B0092164C059AA047CE
S214004150154B9847154B9847154B9847300009B0B4
S214004160F0BDC046EE120020A1130020CC9D010039
S21400417031130020221300202B130020EA12002007
S21400418029530100D09D0100609E01000B02000033
S2140041900E020000DE10002012020000913F000018
S2140041A0D09E010049930000258100009187000001
S2140041B0318A0000704700000322F0B59D4F0326A9
S2140041C0FB1DDA7710229C4B8DB01A703B0006223E
S2140041D029331A703B00944601220390974808330F
S2140041E0DA77020A7A71020CBA71020EFA71944AF0
S2140041F0944C110A3A707970110C120EFA70220A59
S214004200914D7A73220CBA73220EFA732A0A7A72C6
S2140042102A0CBA722A0EFA728C4AB970110A3A74CB
S2140042207974110C120EB97438713C733D72FA74BD
S214004230874A0023110A3A757975110C120EFA7521
S214004240844AB975110A7976110CB976110EF97689
S214004250B91CCE772226791CCE7707217E1DF177F2
S214004260BE1DF3773E0005212C3631703E00072137
S2140042702D363170E021032649007E543900102681
S21400428028310E7074493A760E7831006826FF366B
S214004290B95571494E7816703A0089783C321170DB
S2140042A03A00383213703A00393213703A003A3214
S2140042B013703A003B3213703A00423213703A00E1
S2140042C03E32137053709370D3706A463B00127B75
S2140042D02E331A70039B002B00D074E062465F4EAC
S2140042E05F49B04724225F492800B04748225E490C
S2140042F02000B0470C225D495D48B047FF240323E9
S2140043004D480022825693424DDB0023FA1CD37799
S2140043103A1DD377082203203A77223A7A77133A5F
S214004320BA776032FA77534A0B25B854524A534E3E
S214004330BB54BA18507084229200BB54BA185570F9
S2140043404F4A5049BB54BA18537083229200BB544C
S214004350BA185370012204AB1A71059A4A4B00969C
S2140043604A4CA047012208AB1A7149490096099A9F
S214004370484B2800A0477B7838781B020343B87860
S214004380402200040343F878434900061843334BA1
S2140043909847424B9847424B9847424B98470823CA
S2140043A018000DB0F0BD79793A7909021143BA794F
S2140043B012041143FA7912060A4359008A18013387
S2140043C05470DBB29DE7039AC623012AE8D1624601
S2140043D0224E3549B047242234492800B0472000F1
S2140043E00C223349B047FF24032313480022825689
S2140043F093420FDB0522FB1CDA7700223B1DDA779F
S21400440070235B423B7741337B77023BBB774A3373
S214004410FB77B0E779793A7909021143BA79120441
S2140044201143FA7912060A4359008A180133547068
S214004430DBB2DBE7EE120020181300207113002019
S21400444031130020B11400209113002051140020D5
S214004450221300202B130020EA120020295301000B
S214004460289F0100049F0100869F01006E9F0100A7
S2140044709B1400200B0200000E020000B541000055
S21400448012020000E0100020D09F010049930000B7
S214004490E1100020D89F01002E9F0100557E0000ED
S2140044A0BD86000045890000289F0100E09E0100AF
S2140044B07A9F010070470000F0B50326714C102269
S2140044C0E31DDE7723002A331A70220001232932E7
S2140044D0137022000832D3770023022189B003909C
S2140044E06948020A6271020CA271020EE271674A02
S2140044F02071150A6570150CA570654D2270120E98
S214004500E2702A0A62722A0CA2722A0EE272614ACB
S2140045102572170A22746774170C120EE2745E4A2C
S214004520A774170A22756775170C120EA775E27521
S2140045305A4A170A6776170CA776170EE776A71952
S214004540FB77271DF977102730217F422777703FAA
S21400455067772637A7778D37E777A71CFE77671C20
S214004560F9770727611DCF77A11DCB77E02149009A
S214004570665426002C3637702600B739FF392D369C
S214004580317026001737283637702700444E8C4681
S21400459031783C373970270038373B702700393779
S2140045A03B7027003A373B7027003B373B7022763C
S2140045B07678167022004232137022003E32137054
S2140045C053709370D3706A462300127B2E331A7092
S2140045D0039B66460F2B4BD106223249324EB0471C
S2140045E0324924222800B0470621FF206279237929
S2140045F012021A43A3791B041A43E3791B061343DA
S2140046005B18023158702029F0D1C2231E22FF33D6
S214004610E254637820781B020343A0782232000419
S2140046200343E078224900061843B0470620214B92
S214004630214AE0540023A354A2185070842201217A
S2140046409200A154A21850701C4A1D49A354A218E7
S214004650537083229200A354A4180222637004AB02
S2140046601A71184A184B0092184C059AA04708264B
S214004670174B9847174B9847174B9847300009B089
S214004680F0BDC046EE12002071130020311300204A
S2140046909113002051140020221300202B13002019
S2140046A0EA12002004A0010029530100E09F010047
S2140046B00AA001000B0200000E0200001202000019
S2140046C0E2100020B54400004CA001004993000011
S2140046D07D82000009880000958A0000704700006F
S2140046E00322F0B5914C0226E31DDA77904B0D328B
S2140046F01A70230029331E70230001270833DF7742
S2140047008C4B89B09C4623711B0A637163461B0C55
S214004710A37163461B0EE371874B03901A0A23703E
S21400472062701A0C1B0EE370844BA2701B78362145
S2140047302373834B00251B0A6373814BBE201B0C1F
S214004740A3737F4BFF301B0EE3737E4B1B782372E5
S2140047507D4B1B0A63727C4B1B0CA3727A4B25772E
S2140047601B0EE372794B1A0A237462741A0C1B0E22
S214004770E374774BA2741A0A237562751A0C1B0E23
S214004780E375744BA2751A0A62761A0CA2761A0E94
S214004790E276E21CD677221DD67716225242627740
S2140047A01C32A2773132E277A219D677E219D17796
S2140047B00722611DCA77A11DCD7705212154B0219E
S2140047C0C0192154C0200521FF302154E0214900A2
S2140047D0665421002C310A7021002D3123760A7090
S2140047E02200102128321170D6215B4A4900107829
S2140047F0605468215078FF31605491781970230016
S214004800D2783C331A70230038331D7023003933B6
S2140048101D7023003A331D7023003B331D702300A8
S21400482042331D70E122230052003E331D705D703E
S2140048309D70DD70A35C3B433343A3546A4623005C
S214004840127B2E331A70039B0937052B4DD1604619
S214004850424F04224249B847182242493A48B847CC
S214004860182241493648B847042240494048B847CC
S214004870FF212F4A0023D3569E423FDB2300FF2210
S2140048802F331A70C223EF3AFF33E254637820784E
S2140048901B020343A078374990400343E078303248
S2140048A000061843B8470720334B344AE054002329
S2140048B0A354A2185070842201219200A154A21879
S2140048C050702F4A2F49A354A21853708322920087
S2140048D0A354A4180222637004AB1A712A4A2B4B05
S2140048E000922B4C059AA04708272A4B98472A4B3C
S2140048F098472A4B9847380009B0F0BD607923796D
S21400490000021843A3791B041843E3791B060343EC
S2140049107000C3185970330058339B00E3180136F3
S2140049201D725D729D72DD72F6B2A3E7EE12002074
S2140049301813002071130020311300205CA0010022
S214004940B114002060A00100911300205114002033
S214004950221300202B130020EA1200202953010006
S2140049607CA0010064A00100C4A00100C0A001005A
S2140049709B14002080A001000B0200000E02000025
S21400498012020000E4100020DD460000DCA001005A
S21400499049930000D183000071880000018B00005D
S2140049A0704700000322F0B59B4C0025E31DDA7724
S2140049B010239A4A89B0137022000F3B29321370D5
S2140049C02200039096480832D377030A6371030CDB
S2140049D0A371030EE371934B934E1A0A2370627011
S2140049E01A0C1B0EE370330A6372330CA372330E79
S2140049F0E3728E4BA2701A0A237462741A0C1B0E92
S214004A00E3748B4BA2741A0A237562751A0C1B0E7C
S214004A10A27520712672E375864B03211A0A627608
S214004A201A0CA2761A0EE276E21CD577221DD577EE
S214004A3020225242227733326277203AA2774332DC
S214004A40E277A21CD1773421621CD1772F39621D00
S214004A50D1778C46A21DBE21D5770A22BF27FF310B
S214004A60625401316754C021FF316254B732BD39F8
S214004A70FF32FF39A154220061462C321170220009
S214004A8007212D32117022004918283211706A4A07
S214004A909F311778FF31237667545178C6271970EF
S214004AA0230092783C331A70230038331D7023009D
S214004AB039331D7023003A331D7023003B331D70BD
S214004AC0230042331D7023006A463E331D705D701E
S214004AD09D70DD702300127B2E331A70039B042B0F
S214004AE056D106225549564FB8472422554930001C
S214004AF0B8474A4A032303920C22FF209446039A9F
S214004B00127852B293424CDB2300FF222F331A70E6
S214004B10637820781B020343A078CF3A000403434F
S214004B20E078494900061843B847637822781B02A4
S214004B301343A278012512041343E27807261206CF
S214004B401A430023A01DC17F8B425EDB05203F4B2E
S214004B503F4AE0540023A354A21850708422012137
S214004B609200A154A21850703A4A3B49A354A21886
S214004B70537083229200A354A4180222637004ABDD
S214004B801A71364A364B0092364C059AA0470827CB
S214004B90354B9847354B9847354B9847380009B002
S214004BA0F0BD6179227909020A43A1795E00090401
S214004BB01143E27912060A439219507061792279FC
S214004BC009020A43A17909041143E27912060A434D
S214004BD09555617A267A09020E436146A27A5943B0
S214004BE012041643E27A120632438A185572C2221B
S214004BF0FF32A0541A0058329200A21801331572E0
S214004C0055729572D572DBB279E7D9005118013327
S214004C10CD718E715BB296E7EE120020181300205D
S214004C20711300203113002091130020511400202E
S214004C30221300202B130020EA12002010A10100EE
S214004C4029530100ECA0010016A101000B02000090
S214004C500E02000012020000E6100020A14900002B
S214004C6048A101004993000051850000DD8800003E
S214004C70898B0000704700000322F0B5734C944601
S214004C80E31DDA77230048222A331A702300433ABA
S214004C900833DA7723000A21082689B003906C4887
S214004CA0283319321A70030A6371030CA371030EBA
S214004CB0E371684BE1321B7867462370664B00252C
S214004CC01B0A6370644B20711B0CA370624BA677A3
S214004CD01B0EE370A31CDA77E31CD977231DDE775F
S214004CE0A02323777023637737233821E377631C69
S214004CF0D9770423611DCB77A11DCF775421402798
S214004D00FF316754013166545021FF31655401313B
S214004D10635452234439FF33E654FF390133E154D8
S214004D2056230339FF33E1544C4B803F19001140A2
S214004D302175190A6175190C1B0EE375484BA17590
S214004D401A4022761A0A62761A0CA2761A0EE276B2
S214004D50220060214432FF3211705F3951703821D1
S214004D60494291706D31D17022004832FF3217707F
S214004D70113F577023379770D17022004C32FF32A4
S214004D806B3111707021517037219670D1702200EE
S214004D9061462C32117022000A212D3211705822E1
S214004DA0FF32A5542F4A11781970230052783C33ED
S214004DB01A70230038331D70230039331D7023000A
S214004DC03A331D7023003B331D70230042331D70A1
S214004DD023006A463E331D705D709D70DD702300B3
S214004DE0127B2E331A70204F90222049B84770222B
S214004DF01F491948B847AB2302205B00E5541D4BFA
S214004E000122E0541C4B1D49E554E31858708423D6
S214004E109B00E554E3185D70194BE554E3185D708C
S214004E2083239B00E254E418164A04AB18716070A2
S214004E30154B0092154C059AA047154B9847154BF5
S214004E409847154B9847300009B0F0BDEE12002089
S214004E50A113002058A101003113002022130020C6
S214004E602B130020EA120020295301005CA1010048
S214004E70ECA101000B0200000E020000E81000206A
S214004E8012020000754C00005CA20100499300006D
S214004E90F97C0000FD870000898A00001520704715
S214004EA01520704710B50D4C0B78611DC97F0A2080
S214004EB0994211D36078217800020843A178DB007C
S214004EC009040843E17809060143585C5B185B78DF
S214004ED01B0203430820138010BDC046EE120020BC
S214004EE010B50C4C0B78611DC97F0A2099420FD370
S214004EF06078217800020843A178DB0009040843A3
S214004F00E1780906014308205B181B795BB2137031
S214004F1010BDC046EE12002010B50B4C0B78611D7C
S214004F20C97F0A2099420ED3607821780002084390
S214004F30A178DB0009040843E1780906014308204C
S214004F405B189B78137010BDEE120020F0B5104E63
S214004F500D78731DDB7F0820AB4200D20230E123C0
S214004F605B00F35C37789C467478B178F3786646D5
S214004F7024023C43090421431B06ED000B43F607BD
S214004F8003D5ED18EB781370F0BDEB189B78FAE7B5
S214004F90EE12002010B50B4C0B78611DC97F0A205D
S214004FA099420ED36078217800020843A178DB008E
S214004FB009040843E1780906014308205B185B7979
S214004FC0137010BDEE120020024B08202A331B7807
S214004FD013707047EE120020044B08200233D97F6E
S214004FE01170DB7FFF2B00D102307047EE120020DD
S214004FF010B50B4C0B78611DC97F0A2099420ED361
S2140050006078217800020843A178DB000904084391
S214005010E1780906014308205B18DB79137010BDA0
S214005020EE12002010B50B4C0B78611DC97F0A20CC
S21400503099420ED36078217800020843A178DB00FD
S21400504009040843E1780906014308205B189B79A8
S214005050137010BDEE120020024B08200333DB7FD6
S21400506013707047EE120020024B08200433DB7FDB
S21400507013707047EE120020024B08200133DB7FCE
S21400508013607047EE120020012337B50C7801A993
S2140050904B700E4B0C705B6D15201500984708285A
S2140050A00FD10B4964004A790B7912021A438B79A7
S2140050B01B041A43CB791B061343E41863782B7042
S2140050C03EBDFF230A202B70FAE7C046340D0020B1
S2140050D0EE120020012337B50C7801A94B700D4B5A
S2140050E00C705B6D15201500984708280ED10A49EC
S2140050F064004A790B7912021A438B791B041A430F
S214005100CB791B061343E35C2B703EBD00230A20BD
S2140051102B70FAE7340D0020EE12002001235B42CC
S2140051200A201380704701235B420A2013607047F1
S214005130FA239B000820138070470000014B0820CC
S2140051401380704788130000014B082013807047B7
S21400515070170000FA23DB00082013807047202316
S2140051600820137070474023082013707047802370
S214005170DB01082013807047024B08200833DB7FD2
S21400518013707047EE120020024B08200733DB7FB7
S21400519013707047EE120020024B08202F331B7846
S2140051A013707047EE120020C021094BFF31595C86
S2140051B000209171BE21FF31595C1180DF2149002A
S2140051C05B5653800123D371043393807047C046E7
S2140051D0EE120020A8230A7803495B00CB5C082067
S2140051E09A4200D902307047EE120020094B0A7826
S2140051F0591DC97F0A2091420AD3E1214900595C12
S2140052000238C90704D50333DB7F934200D9023046
S2140052107047C046EE1200200B78A921064A4900C6
S214005220515C0A20994205D35221FF31525C9A42C2
S21400523000D802387047C046EE120020A82370B58A
S2140052400F4D5B000C78EB5C1600A34210D36A7817
S2140052502B7812021A43AB78E4001B041A43EB784F
S2140052601B061343E3185B7933700823180070BDE0
S214005270044B0F2098470A230828F7D1E7E7C046D3
S214005280EE12002019520000A82370B50F4D5B00E7
S2140052900C78EB5C1600A34210D36A782B781202C7
S2140052A01A43AB78E4001B041A43EB781B0613433F
S2140052B0E3189B7933700823180070BD044B0F2049
S2140052C098470A230828F7D1E7E7C046EE120020E1
S2140052D019520000A82370B50F4D5B000C78EB5CEC
S2140052E01600A34210D36A782B7812021A43AB78C2
S2140052F0E4001B041A43EB781B061343E318DB7920
S21400530033700823180070BD044B0F2098470A23FB
S2140053100828F7D1E7E7C046EE1200201952000031
S214005320A82370B50F4D5B000C78EB5C1600A3420B
S21400533010D36A782B7812021A43AB78E4001B0469
S2140053401A43EB781B061343E3189B783370082345
S214005350180070BD044B0F2098470A230828F7D181
S214005360E7E7C046EE12002019520000A82370B5E9
S2140053700F4D5B000C78EB5C1600A34211D36A78E5
S2140053802B7812021A43AB78E4001B041A43EB781E
S2140053901B061343E3181B795BB23370082318000F
S2140053A070BD044B0F2098470A230828F7D1E6E77C
S2140053B0EE12002019520000A82370B5104E5B00B4
S2140053C00C78F35C1500A34213D37278337812027C
S2140053D01A43B378E4001B041A43F3781B061343FE
S2140053E0E25CE41863781B0213432B800823180042
S2140053F070BD044B0F2098470A230828F7D1E4E72E
S214005400EE12002019520000094B0A78591DC97F78
S2140054100A2091420AD3E1214900595C02388907E3
S21400542004D50333DB7F934200D902307047C04671
S214005430EE120020044B0A782A331B7808205BB251
S2140054409A4200DB02307047EE12002010B52A2484
S214005450084A0B7814570A20A34209DA497802381A
S214005460002905D1C131FF31525C9A4200D9023081
S21400547010BDC046EE120020012337B50D7801A9F5
S2140054804B7015200B4B14000D70984708280ED152
S2140054900C236B43084AD318AB331B78D4335B001A
S2140054A0D218937951791B020B4323803EBD0A2004
S2140054B0FCE7C0464D540000EE120020F7B5194B2D
S2140054C0591DCF7F991DCE7F19002A31097849B220
S2140054D0019158791979000208439979090408431B
S2140054E0D979002309060143009101998B4203DB19
S2140054F0177056700820FEBD00995C000C19607885
S21400550005072D0FBD4203DA2178002900D02F00B1
S2140055100009B04203DD2478002C00D006000133D9
S214005520DBB2E2E7EE1200200B780A20052B02D051
S214005530072B00D80238704713B501AC094B04227C
S214005540200098476388002B03D123780A20072B76
S21400555007D0054B21001B2098470300082018435E
S214005560C0B216BD2953010029550000044B0A7825
S2140055702D331B7808205BB29A4200DD023070475C
S214005580EE1200200820704770B50888002811D059
S21400559010492A244B7A0A7A1B0213438A7A0C256E
S2140055A012041343CA7A032612061A4300230C5722
S2140055B0A34201DB082070BD002806D0290059430D
S2140055C05118C97A31400329F4D101334008DBB2BF
S2140055D0EEE7C046EE1200200B780820002B02D023
S2140055E0062B00D00230704713B501AC0D4B0422D9
S2140055F0200098476388002B03D123780A20002BCD
S2140056000FD06B461A20991D074B984703000A20B7
S214005610082B06D121001130044B9847082800D0EB
S2140056200A2016BD2953010089550000D9550000EF
S214005630044B0A780533DB7F08209A4200D90230F3
S2140056407047C046EE12002030B5087811492A246B
S2140056504B790A791B0213438A790C5712041343B9
S214005660CA7912061A430023A34201DB0A2030BD82
S214005670590051180D78002D07D049780D072D0FC9
S214005680A84202DB0909884202DD0133DBB2EBE700
S2140056900820ECE7EE12002010B5074B08680A2435
S2140056A0C018064B984205D80549064B984700296E
S2140056B000D1023C200010BD608FF7C840164000A5
S2140056C0C02709006D1C0100A82370B5134C5B00B1
S2140056D0E25C4B780A201D09AA4211D30F263340FC
S2140056E09A420DD3AB420BD85426FF360978A65DF6
S2140056F08E4206D99A4203D00820AA4200D1023030
S21400570070BD2A342478082064B2A142F8DA023048
S2140057109A42F5D1AA42F3D10238F1E7EE12002000
S2140057200F224B7807491A400531C97F0A208A4262
S21400573006D81B090A208B4202D89A4200D80238A3
S2140057407047C046EE120020044B0A782C331B78B4
S2140057500A205BB29A4200DC02387047EE12002044
S214005760184930B50B000400002029334A7B1D7809
S2140057700B7B12021A438B7B1B041A43CB7B1B0644
S2140057801343A84201D1FF2030BD59781A78090288
S21400579011439A7812041143DA7812060A43A24299
S2140057A00BD859791A79090211439A7912041143D0
S2140057B0DA7912060A439442E6D90130C0B20C33B5
S2140057C0DFE7C046EE120020044B10B50868984785
S2140057D00823FF2800D10233180010BD61570000CF
S2140057E0154A0B682E321278911F032907D8134AE0
S2140057F09B18134A082093420AD9023008E00A2A66
S21400580007D1104908205B180F498B4200D91000B9
S21400581070470B2A03D011000D39012903D80B4A13
S2140058209B180B4AE6E70A200C2AF1D1094A0238EF
S2140058309B18094ADFE7C046EE1200204023FCC84A
S21400584080841E00403576C9405DC60000EA29C93E
S214005850404B4C0080650BC9808D5B0070B5E12421
S2140058600126094A64004D78135D0878B343690839
S214005870354031402B430225B140AB430B43135513
S21400588028321070082070BDEE120020154B70B53F
S2140058901D0000220C262A35002169568A4201DDA9
S2140058A0082070BD587A197A00020843997A0904CC
S2140058B00843D97A090601433000504341184C7A10
