:10000000103C002049380000E1380000E1380000D1
:1000100000000000000000000000000000000000E0
:10002000000000000000000000000000E1380000B7
:100030000000000000000000E1380000E13800008E
:10004000E1380000E1380000C1120000210E00007C
:10005000E1380000E1380000E1380000E13800003C
:10006000792000008920000099200000A9200000CC
:10007000B9200000C9200000E1380000E13800008C
:10008000E13800000534000015340000253400007C
:1000900035340000453400006D0B0000E1380000ED
:1000A000E1380000E1380000E1380000E1380000EC
:1000B0000000000010B5064C2378002B07D1054B3B
:1000C000002B02D0044800E000BF0123237010BDC4
:1000D000180A0020000000008CB60100084B10B583
:1000E000002B03D00749084800E000BF0748036819
:1000F000002B00D110BD064B002BFBD09847F9E731
:10010000000000001C0A00208CB601008CB6010023
:100110000000000010B5054B9847054B1860002201
:10012000044B1A70C832044B1A7010BDFD4B01000D
:10013000180F0020150F0020140F00200022014B83
:100140001A707047150F0020014B18787047C04691
:10015000150F0020014B18687047C046180F00208B
:1001600010B50400104B1A78111D104B1B7800209D
:10017000994218DC0E490C4B501C187008688454C6
:100180001A78501C187002200C68A0541A78501C61
:10019000187080200C68A05409681A78501C1870D8
:1001A00001208854187810BD150F0020140F00206E
:1001B000180F002010B50400104B1A78111D104BB9
:1001C0001B780020994218DC0E490C4B501C18700B
:1001D000086884541A78501C187067200C68A05462
:1001E0001A78501C187080200C68A05409681A787E
:1001F000501C187001208854187810BD150F00206D
:10020000140F0020180F00200D4A24231370013210
:100210001A3B13700A33DBB20132462BF9D1F622B6
:10022000074BDA71002000230549CA5C8018C0B270
:100230000133072BF9D1F63843425841C0B2704719
:10024000200F002010B5094B1B780024242B01D06F
:10025000200010BD054AD3785B00A0342340947879
:10026000E41821000248034B9847F1E7200F0020D3
:10027000D09A0100B1520100D0B5164B9847041C2A
:10028000154B984706000F001449201C144B984743
:10029000002805D01349201C134B9847002811D182
:1002A0001249201C104B9847002805D01049201CEB
:1002B0000B4B9847002809D10E4A0F4B1A603000AB
:1002C0003900D0BD0D4A0C4B1A60F8E70C4A0A4BB6
:1002D0001A60F4E785040000F14601000000C44103
:1002E000391D01000000BC41611D01000000CC412E
:1002F0000000D44188130000640000203075000025
:10030000983A000030B58FB001AA64230193214BC5
:100310005360002393601373137680218903116166
:10032000012149429182253153549362083153543B
:100330000131535401315354D7331386FA239B00B0
:10034000D382154BD361154B1362154C1549200010
:10035000154B984724680722E3691A42FCD12368A9
:100360000222134323600E4D2868104B98471F2329
:1003700018401E3B83400E4A1360E888002310217A
:10038000628B0A4204D101338342F9D31023638381
:100390000FB030BD480D0000020010000200110037
:1003A0003410002000040042911300004920000096
:1003B00000E100E010B5074B9847074B48221A8030
:1003C000064A5A6002225A8000221A725A729A729F
:1003D00010BDC0460503000028100020380A002088
:1003E00070B50C4A10700C4B482119805A600122DC
:1003F0005A801D00094C0A4E29002000B0470028F1
:1004000007D0084A1368591C1160FA2292009342DF
:10041000F2D170BD380A00202810002034100020CE
:10042000D1190000340A0020F0B583B00600104B4B
:1004300048221A800F4A5A6002225A801D000E4C30
:100440000E4F29002000B847002808D00C4A136836
:10045000591C1160FA2292009342F2D106E001ABDE
:10046000044A1178197052785A70985D03B0F0BD43
:10047000281000205C10002034100020AD1900006E
:10048000340A002070B50020134B98470020134D0C
:10049000A84704000120A847C3070AD56401C00883
:1004A000C0B2204300B20E4B98420CDD0D4B1843F6
:1004B00009E024010009C0B2204300B20A4B98426F
:1004C00001DD0A4B18430A4B98470022094B0A4C9E
:1004D000A0470A4B984770BDE103000029040000C3
:1004E000FF0F000000E0FFFFFF07000000F0FFFF2C
:1004F000FD4501000000B03F693A01009547010049
:1005000070B50120104B98470020104B9847104AB7
:1005100001231370184350700E4B482119805A6004
:1005200002225A801D000C4C0C4E29002000B047BE
:10053000002807D00A4A1368591C1160FA22920059
:100540009342F2D170BDC046E103000029040000CF
:10055000380A00202810002034100020D119000093
:10056000340A002070B50120104B98470020104B32
:100570009847104A01231370984350700E4B48213E
:1005800019805A6002225A801D000C4C0C4E290022
:100590002000B047002807D00A4A1368591C116090
:1005A000FA2292009342F2D170BDC046E1030000EE
:1005B00029040000380A00202810002034100020F0
:1005C000D1190000340A002070B50020084B98476C
:1005D0000500084CFA218900A047074B186007491D
:1005E0002800A047064B18600522064B1A6070BD14
:1005F00035310000151A01000000002040420F00B4
:100600000400002010E000E030B5084B1C68084AE8
:10061000002580214902013807D3002CFBD054600B
:10062000956013680B42FCD0F5E730BD0400002054
:1006300010E000E030B5084B1C68084A0025802116
:100640004902013807D3002CFBD054609560136831
:100650000B42FCD0F5E730BD0000002010E000E0C8
:100660000C4B1B68002B06D1EFF31083002B07D037
:100670000022094B1A70074A136801331360704750
:1006800072B6BFF35F8F0022044B1A700132024B27
:100690001A70F0E73C0A0020400A00200800002001
:1006A000084B1A68013A1A601B68002B09D1064BE7
:1006B0001B78002B05D00122044B1A70BFF35F8F0B
:1006C00062B670473C0A0020400A00200800002063
:1006D000F0B5C64600B582B001AC012565700023B7
:1006E0009846A370257021001320124EB047124F78
:1006F00080231B03BB61257021001220B04780239B
:10070000DB02BB61257021000D20B04780239B01D7
:100710007B61257021000920B04780239B007B610D
:1007200043462370657021001C20B04702B004BC12
:100730009046F0BDB50F0000002800400020704733
:1007400010B500230022037043708370C370002132
:1007500003830362C36106240471C0246401C4805E
:10076000017242728272C27202732A24025542736B
:100770008273C27303610275063C0255C38403850C
:10078000417510BDF0B5CE4600B598B005000C001F
:1007900016000800B24B98472C60B24A136A082131
:1007A0000B43136222780523D20704D5180018B032
:1007B00004BC9146F0BD2A68138C9BB2002BFBD180
:1007C00022781C339207F1D473782B71002B04D15B
:1007D000A54AD36904210B43D3610023AB60EB60CE
:1007E0002B61AB76EB762B832B7780009F4BC5502C
:1007F0002A23F35C002B05D1337B002B02D101337C
:100800006B7701E000236B772F6833786A461370AB
:1008100069461E20964B98471E20964B9847347980
:100820005822954902A8954B9847132C0BD9F48868
:100830005822914902A8914B9847132C11D90024B2
:100840008E4B99461EE0A40002ABE05801A900239C
:100850004B70CB708B7001330B70C0B2884B9847D4
:10086000E5E7A40002ABE05801A900234B70CB7070
:100870008B7001330B70C0B2814B9847DFE70134B6
:10088000142C18D00123A34032691A42F7D0582201
:10089000794902A8C847132CF1D8A30002AA985896
:1008A00001A900234B70CB708B7001330B70C0B269
:1008B000734B9847E3E7737B9B01B27BD2011343F1
:1008C000DBB23B70337DDB0172781343DBB2BB706C
:1008D000F378342B00D940E19B006A4AD3589F46F5
:1008E0000422102002211AE0717A327A102016E0D8
:1008F00006221020012112E00822102000210EE023
:100900000022302000210AE000222020002106E001
:1009100000220020002102E0022210200121090112
:1009200070230B4013433B732A68138C9BB2002B3C
:10093000FBD1727D17333F2A00D937E7F37BDB0108
:100940001A43D2B27A732A68138C9BB2002BFBD164
:10095000B3787B702423F35CDB00327B92001A4374
:10096000F37A1343B27A5200134303437B812A681C
:10097000138C9BB2002BFBD1328B002A20D0102885
:1009800000D1C9E000D883E0202800D1A3E03028BE
:1009900016D1F37A002B0AD0F16980311723FF2991
:1009A00000D903E7316A8031FF2900D9FEE6172319
:1009B000F169FF2900DDF9E6316AFF2900DDF5E67E
:1009C0007B891A437A812A68138C9BB2002BFBD156
:1009D000B38BFB812A68138C9BB2002BFBD1338C29
:1009E0003B822A68138C9BB2002BFBD13379F288AF
:1009F00013433B812A68138C9BB2002BFBD12A3313
:100A0000F35CFB7007233B711D33F35C002B1BD0A1
:100A1000F28C1D4917238A4200D9C7E67A822A68D8
:100A2000138C9BB2002BFBD1318D80231B01CA1884
:100A3000154892B21723824200D9B7E6B9822A68D4
:100A4000138C9BB2002BFBD1104B1B681A02E021C8
:100A5000C9000A409B065B0F1343BB850023A5E634
:100A60003D07000000040040001400405C1100201D
:100A700011320000A1310000C49B01007951010036
:100A80000D330000F09A0100FF0F0000206080008D
:100A9000002895D1F37A002B12D0F3698020000151
:100AA0008446634419002E481723814200D97DE60D
:100AB000336A634419002A481723814200D975E636
:100AC00027491723F069884200DD6FE6306A8842C3
:100AD00000DD6BE674E7F37A002B12D0F369802017
:100AE00080008446634419001E481723814200D9C0
:100AF0005CE6336A634419001A481723814200D91F
:100B000054E618491723F069884200DD4EE6306A42
:100B1000884200DD4AE653E7F37A002B12D0F369EE
:100B2000802000028446634419000F481723814245
:100B300000D93BE6336A634419000B48172381420E
:100B400000D933E608491723F069884200DD2DE615
:100B5000306A884200DD29E632E7172326E6C046E0
:100B6000FF0F0000FF030000FFFF000070B52F4BD8
:100B70001C6823689A795D791540EA072AD5012215
:100B80009A716269931C636123689B8C9BB213808A
:100B9000238B013B9BB22383002B15D0637F002B5B
:100BA00018D02268D3795BB2002B13DB138C9BB275
:100BB000002BFBD1137E02210B4313762268138C8A
:100BC0009BB2002BFBD105E0012322681371237F28
:100BD000052B16D06B0708D5042322689371E37E9A
:100BE0009B0702D5A37E9B0717D4AB0708D502232A
:100BF00022689371E37E5B0702D5A37E5B0710D466
:100C000070BD00232377E37EDB07E3D5A37EDB07FC
:100C1000E0D52000A3689847DCE72000E368984708
:100C2000E3E7236920009847EAE7C0465C1100200B
:100C300001230370002343708370C37003710F227C
:100C400042718371C3710372704702681368022195
:100C50000B43136070470323026853710268D3711A
:100C60000268136802218B431360704770B504005B
:100C70000D00D37803712160537843711379837128
:100C800013789B029178C9020B43517809020B43F8
:100C9000D17889000B43117949010B43917989037C
:100CA000D07940030143107A0003014352791204C2
:100CB000F020000302400A4313431E002B689B07E9
:100CC00001D42E6070BD2000034B98472E60200099
:100CD000024B9847F6E7C046570C00004B0C00004B
:100CE00070B5054CE56980239B012B43E36101232B
:100CF0000B60024B984770BD000400406D0C000073
:100D000070B54379012B05D0002B10D0022B0DD1EB
:100D1000082500E00625002310C99A1C92000668E9
:100D2000B446624454600133AB42F5D370BD042530
:100D3000F1E7000010B50023026813720F4B426800
:100D400013400F4A93420AD00379032B0ED00C00B4
:100D50001034036804C99A638C42FAD110BD036849
:100D60000A689A6303684A689A63F7E78379023BE3
:100D7000012BECD803680A689A63EFE7FF00FF00D5
:100D800003000100002302681372104B42681340F5
:100D90000F4A93420AD00379032B0ED00A00103277
:100DA00003689B6B08C18A42FAD1704703689B6B4A
:100DB0000B6003689B6B4B60F7E78379023B012B69
:100DC000ECD803689B6B0B60EFE7C046FF00FF00A9
:100DD000030001001723002A01D0180070478B0080
:100DE000064A9B58002B03D0834205D01D23F4E70D
:100DF000890088500023F0E70023EEE7641100200B
:100E00001723002901D01800704700221F2800D89E
:100E1000024A0123834013610023F4E700240040C9
:100E200070B50022104B1A70002310491F25104E78
:100E30000D4C0AE00D4908E023780133DBB2237042
:100E40000F2B10D800211F2BF4D9280018400122A5
:100E5000824048691042EFD04A619B009B59002BA9
:100E6000EAD09847E8E770BD6011002000240040F8
:100E700064110020064A137802210B4313700120ED
:100E800053681942FCD153681842F9D17047C046E3
:100E900000240040064A137802218B43137001207E
:100EA00053681942FCD153681842F9D17047C046C3
:100EB0000024004010B5124A516980239B000B4367
:100EC0005361104A137801210B4313700131012043
:100ED00053681942FCD153681842F9D1094A137872
:100EE00010210B431370084B19004031002204C33A
:100EF0008B42FCD10822054B1A60054B984710BD68
:100F000000040040002400406411002000E100E0E3
:100F1000750E000000230360436001220272837299
:100F20000132C27243727047F0B583B005000C0005
:100F30001C4B984701A900234B70CB7023790B7091
:100F4000237A8B702078184B984700211F2D00D8EA
:100F5000164907222A409200E77AA37A002B01D093
:100F600008231F43EB089B00CB18D8690F26964037
:100F7000B04397403A000243DA61637A002B0BD109
:100F80008A690123AB40DB431B041B0C13408B61BC
:100F9000074B984703B0F0BD8A690123AB40134368
:100FA0008B61F5E7950E00000D3300000024004032
:100FB000750E000000B583B001AB80221A700A786C
:100FC0005A704A789A708A78DA701900014B9847FB
:100FD00003B000BD0D33000003681869431E98413B
:100FE000C0B2704770B5040006680422084B1A604E
:100FF000084D2000A8470028FBD133880222134364
:101000003380044D2000A8470028FBD170BDC046A6
:1010100000E100E0D90F000070B50400066804216B
:1010200080230A4AD1500A4D2000A8470028FBD14E
:10103000084B3381B3813388022293433380044DBC
:101040002000A8470028FBD170BDC04600E100E0A9
:10105000D90F0000FF81FFFF70B5040006680A4B3E
:1010600098470023A386E386084D2000A847002860
:10107000FBD13388012213433380044D2000A8475D
:101080000028FBD170BDC04619100000D90F000028
:10109000F8B504000E0007680C4D2000A847002892
:1010A000FBD12379002B09D01720012B05D1BE617C
:1010B000064D2000A8470028FBD1F8BD044B17209F
:1010C0009E42FAD8B6B23E83F2E7C046D90F00007E
:1010D000FFFF000070B504000668084D2000A84717
:1010E0000028FBD12379002B04D00020012B00D154
:1010F000B06970BD308B80B2FBE7C046D90F0000ED
:10110000F0B583B00400019115000668134F20006C
:10111000B8470028FBD12379002B0ED0012B19D121
:101120001730012D17D80835AD00019BAB510B4D81
:101130002000A8470028FBD10DE01720022D0AD877
:10114000074B019A9A4206D86B469B8810356D0072
:10115000AB53ECE71A2003B0F0BDC046D90F000036
:10116000FFFF000070B50400150001601F4A5169BF
:1011700080235B000B43536105221D4B1A611D4BFD
:101180009847AB7823711C4B1C6022682B79DB03DA
:1011900029880B439BB21380AB78002B13D0172008
:1011A000012B0FD113889BB21380EB78002B03D057
:1011B000138880210B431380A968002220000F4B65
:1011C0009847002070BD138804210B431380EB78EF
:1011D0001720002BF6D10022A9682000074EB04747
:1011E000E96801222000B0470020EBE7000400403E
:1011F0000010004059100000A4110020011100004F
:101200000A2A09D0072A07D90379002B10D0012B0D
:1012100012D11633092A09D8931C9B001950838ECA
:10122000012191400B439BB2838600231800704735
:1012300017230A2AFAD8EFE71723F7E710B5026851
:101240000A2911D0072912D980235B000C00083C21
:10125000A340C024A40023405381C38E01228A40AE
:1012600013439BB2C38610BD044B5381F5E70124A1
:101270008C40FF2323405381EFE7C0460080FFFFEF
:1012800010B502680A2910D0072911D980235B0004
:101290000C00083CA340C024A40023401381C38E4B
:1012A00001228A409343C38610BD044B1381F6E7A5
:1012B00001248C40FF2323401381F0E70080FFFFCF
:1012C000F8B5DE4657464E464546E0B52B4B1B6803
:1012D0009A461E68DB8E5246928E1A409046B2891C
:1012E000738913401AB2002A08DBFF271F402AD057
:1012F000002401239946FE339B4614E043465B05D8
:1013000007D41F4BB3813CBC90469946A246AB46DE
:10131000F8BD53461B6B9847F3E75B461D40B5810C
:101320000134082CEFD023004D46A5402F42F4D0C5
:101330004246224149461142EFD002339B005246B9
:101340009B589847E9E7DA050AD54346DB0503D4FD
:1013500080235B00B381D6E753469B6A9847F7E743
:101360009B05D0D543469B0503D480239B00B381C6
:10137000C9E75346DB6A9847F7E7C046A411002047
:101380000080FFFF01680722CB691A42FCD1704739
:10139000F0B5D6464F464646C0B58AB007000E00A7
:1013A000140039600800A54B9847052800D13DE19D
:1013B00005001235A24AD169012383400B43D36152
:1013C00009A9237B0B70EDB228009E4B984728009B
:1013D0009D4B9847207B00219C4B984733681C20ED
:1013E0009B0705D50AB01CBC90469946A246F0BDA5
:1013F00033681738DB07F5D43868904B994698471F
:1014000005009349934B9847AD00934BEF50002351
:101410003B767B7600257B83BB832522BD543B62D4
:10142000143333603B6898461800C84781468023D0
:1014300008AA1370557001239370D570E069266A6D
:10144000002800D1AFE008AB1870022308AA53703F
:10145000000CC0B21100814B9847002E00D1A7E0CC
:1014600008AB1E70022308AA5370360CF0B21100AC
:101470007A4B9847A38AFB80E38A3B81237E8022B4
:10148000002B04D1764B9B789B07DB0FDA01A16818
:1014900023690B4313432422A25C002A02D080223A
:1014A000D2051343A26A13432C22A25C002A03D163
:1014B00080229204914202D18022120513432D22F0
:1014C000A25C002A02D08022120413432E22A25CC6
:1014D000002A02D08022D2031343424612681343EB
:1014E0004246136080235B0053604D461235E8B2DC
:1014F0005C4B98470790FA239B0022685A43914619
:1015000063689A46584DA847009001914B46580091
:10151000A84702900391208EA84704900591534F4D
:10152000534A544B00980199B84702000B000498A5
:101530000599B847504E0022504BB0470490059192
:101540004846A84702000B0004980599B8470200D6
:101550000B004B4D00980199A847029A039BB04796
:101560000022484BA847029A039B474DA847474B88
:101570009847050080239B04A2689A421ED003006E
:101580004020FF2D00D92DE700240020FF251D401D
:10159000240625430004FF231B041840054343464B
:1015A000DD6000201EE700214046394B98474AE79E
:1015B00001214046364B9847060051E7FA26B6000F
:1015C00053465E430098019902000B002A4CA04745
:1015D000009001913000244B984700222D4BB847D2
:1015E00002000B0000980199274CA0470022254BD0
:1015F000234CA047254B9847041E0CD03100079878
:10160000254B98470238001B2B00FF2D0CD8FF28D4
:10161000BCD94020E6E67100481E079B9C4660440A
:101620001D4B98470138EFE74020DBE6044A136A78
:1016300002210B4313621825C2E6C046D11F0000E9
:101640000004004011320000A1310000291E0000FA
:10165000C51A00000D200000A81100200D33000065
:10166000002000413532000081460100693A010046
:1016700095D626E80B2E113EE12D010000002440F6
:10168000693F01000000F03F013401009545010071
:10169000751E000000000840151A010003681A7E3C
:1016A000920707D502221A765B8B9B074120DB1736
:1016B000184070475A8B520706D55968C0229202CB
:1016C0000A435A601820F4E70020F2E730B50268B8
:1016D000002301240225117E21420BD1117E2942D3
:1016E00006D101339BB201899942F4D8122002E05D
:1016F000002000E0002030BD10B50468626880233F
:10170000DB02134363606162024B98470123237637
:1017100010BDC046CD160000F0B5DE4657464E4619
:101720004546E0B583B00600894605684C882B68BD
:101730001B01DB0F9A464B7A002B2BD16B68584A62
:1017400013406B604B461B7A002B27D14B461B88FE
:101750005B004A46527A92031343012213436B62A1
:101760003000504B984701905346002B03D04B4616
:101770005B88012B3BD06B68494A13406B60019B2F
:10178000002B3AD0019803B03CBC90469946A24643
:10179000AB46F0BD897A444B9847CFE74B461B8850
:1017A0005B004A46527A920313438022120213438B
:1017B0006B6230003B4B984701906B68384A13408E
:1017C0006B600028DED13000384B9847019000282C
:1017D000D8D14B461B881B0A782213435B004A462C
:1017E000527A920301210A4313436B62B8E76A6895
:1017F0008023DB0213436B60C1E730002B4B98471B
:1018000001900028BED1013CA4B28046284B9B46E3
:1018100015E0012C20D03000264B984743465F1C32
:10182000BFB22823EB5C4A4652684146535430000D
:101830001C4B9847013CA4B2002815D1B8465C4522
:1018400014D06B8B9B0627D5F37A002BE3D053463D
:10185000002BDED1002CDED16A688023DB0213432B
:101860006B60013CA4B2EAE7B8460190B37A002B62
:1018700009D130000F4B98472823EA5C4B465B6840
:1018800041465A547EE730000A4B98476A68C023A5
:101890009B0213436B60ECE74123019372E7C04660
:1018A000FFFFFBFFCD160000F91600009D1600009B
:1018B000FFFF000085130000F0B5DE4657464E4698
:1018C0004546E0B583B006000F0005684C88324BF2
:1018D00098477B7A002B1DD16B68304A13406B60B0
:1018E0003B7A002B1BD03B885B007A7A9203134330
:1018F0008022120213436B623000294B98470190FB
:10190000002813D0019803B03CBC90469946A246EB
:10191000AB46F0BDB97A3000224B9847DCE73B88F4
:101920005B007A7A920313436B62E5E730001E4B4B
:101930009847031E0190E5D1A04600242033994624
:10194000154B9B46164B9A46444515D06B8B4A4621
:1019500013421DD03000D8477B681A5D2823EA5413
:101960003000D047002806D16B8B01345B07EBD5E4
:101970001E23019300E00190B37A002BC2D0300007
:10198000054B98476A68C0239B0213436B60B9E715
:1019900041230193B6E7C04685130000FFFFFBFF1C
:1019A000CD160000F91600009D16000010B5838BBF
:1019B0009BB20522002B01D0100010BD01338372B1
:1019C000C372024B98470200F6E7C04619170000A1
:1019D00010B5838B9BB20522002B01D0100010BDE7
:1019E00083720133C372024B98470200F6E7C04688
:1019F000B918000001680722CB691A42FCD1704770
:101A000070B5040006683268458B838BED1AADB261
:101A1000838B013B9BB2838313011DD5C37A002BBB
:101A200003D0838B9BB2012B10D0A38B9BB2002BD6
:101A300002D1A37A002B1CD12000124B9847236AB5
:101A40005D192823F35CDBB22B7070BD72688023B4
:101A5000DB0213437360E8E7C37A002BE5D0838B86
:101A60009BB2002BE1D172688023DB0213437360C9
:101A7000DBE72000034B98477268C0239B021343A7
:101A80007360D9E7F519000070B5040005686B8B29
:101A90005B0703D51E222523C25470BD468B838B62
:101AA000F61AB6B2838B013B9BB28383044B9847F3
:101AB000236A9E193378DBB22822AB54EDE7C04687
:101AC000F519000070B58000754BC45825682B6867
:101AD0001B01DA0F637E267E1E40638B9BB2002BB8
:101AE00003D1A38B9BB2002B23D1638B9BB2002B22
:101AF00008D0A38B9BB2002B04D12533E35C052BCC
:101B000000D16DE0638B9BB2002B24D0A38B9BB2E2
:101B1000002B20D06B8B9B0600D581E0002A04D0DF
:101B2000A38B9BB2012B00D17AE041222523E25402
:101B300011E02B7EDB0707D501232B766B8B9B07F0
:101B40002ED541222523E254A38B9BB26383252308
:101B5000E35C052B38D0638B9BB2002B07D0A38BA3
:101B60009BB2002B03D12533E35C052B64D02523E6
:101B7000E35C052B13D02523E35C002B0FD003235C
:101B80002B7500236383A3832533E35C412B03D0B0
:101B9000A37A002B00D075E0730700D57BE070BD01
:101BA0006B8B5B07D0D518222523E2540023A38337
:101BB000A37A002BC8D020003A4B98476A68C0230C
:101BC0009B0213436B60BFE71F33E35C002B03D022
:101BD0002000354B9847BEE72000344B9847BAE7C2
:101BE0001F33E35C002B00D08CE703332B750023FD
:101BF000638325330022E254A37A002B07D101230B
:101C00002B76F307A7D5E36820009847A3E72000C9
:101C1000244B98476A68C0239B0213436B60F0E72C
:101C20002423E35C002B03D12000204B984792E74C
:101C300020001D4B98478EE71F33E35C012B96D1A4
:101C40002B7E9B0701D502232B7603232B750023C4
:101C5000638325330022E254B30703D52423E35CD6
:101C6000012B0BD0F30700D481E72423E35C002B86
:101C700000D07CE7E3682000984778E723692000DC
:101C8000984774E72000074B98476A68E023DB0217
:101C900013436B6080E76369200098477FE7C04685
:101CA000A8110020F5190000011A0000891A00008F
:101CB000F0B5DE4657464E464546E0B587B080460D
:101CC000049116001F000022002300218B463F24B0
:101CD00001202100009601975C4603944446059438
:101CE00013E02024641A0500E540A84614E0009C97
:101CF000019D121BAB415C464D462C43A346039C01
:101D000045462C430394013925D3202464420C1901
:101D1000E7D40500A540A84604008C40A1469218CF
:101D20005B4114001D00059E4F463E40B446049E94
:101D300047463E40B246664657463E4303D00600FD
:101D4000264332002B00009C019D9D42DBD8CED162
:101D50009442D8D8CBE7039B5846190007B03CBC47
:101D600090469946A246AB46F0BD10B549084023BF
:101D70000024814202D2180010BD1C00091A631C05
:101D80009BB28842F9D94023FF2CF4D81480002359
:101D9000F1E70000F0B583B00F00160008AA117833
:101DA00004004C434022BC4202D9100003B0F0BDF5
:101DB000002B14D1020008000021194CA04701009B
:101DC0003A0000230020174CA04700220123121ADA
:101DD0008B41120C1B041A4332800022E5E70022DB
:101DE000012BF9D10A00002300210D4CA04702006D
:101DF0000B0000920193380000210A4CA047050017
:101E000080239B0140229842CFD8790FF800009A96
:101E1000019BA047EA00821AD2B252032A43DBE7B1
:101E2000B51D0100B11C000010B582B004000E4BBE
:101E30001B78002B07D0002905D10B4B5B78834220
:101E400010D01D200CE001A90C701120074B984701
:101E50001120074B9847044B5C7001221A70002038
:101E600002B010BD0020FBE7440A00201132000040
:101E7000A13100003C4B984232D00AD93B4B9842EA
:101E80004ED03B4B984255D03A4B984238D0002028
:101E900070478423DB0598420CD0374B9842F6D12B
:101EA000012917D0002957D0022915D0032915D0B0
:101EB0000020EDE7012907D000294BD0022905D0E9
:101EC000032905D00020E3E72C48E1E72C48DFE7B1
:101ED0002C48DDE72C48DBE72C48D9E72C48D7E72E
:101EE000012907D0002939D0022905D0032905D0BE
:101EF0000020CDE72748CBE72748C9E72748C7E7B1
:101F0000012907D000292BD0022905D0032905D0AB
:101F10000020BDE72248BBE72248B9E72248B7E7DF
:101F2000022903D0032903D00020B1E71F48AFE7FF
:101F30001F48ADE7012907D0002913D0022905D099
:101F4000032905D00020A3E71A48A1E71A489FE714
:101F50001A489DE71A489BE7032099E7194897E735
:101F6000194895E7194893E700080042001000421D
:101F700000040043000C004200040042030005007E
:101F800003000600030007000300010003001E0019
:101F900003001F000300090003000A0003000B00F8
:101FA00003001100030012000300130003000E00E1
:101FB00003000F00030017000300180003001900BE
:101FC00003000400030008000300100003001600D3
:101FD00030B587B00B4B6A4632CB32C232CB32C2FD
:101FE000009B83420BD001239A00694652588242DB
:101FF00006D00133062BF7D1002007B030BD0023F7
:10200000D8B2FAE71C9C010070470000F0B50A4BFB
:102010001B78002B0CD1094F094E0A4D0024DE51CC
:102020005A1914600433182BF9D10122024B1A708B
:102030008000024BC150F0BD460A0020480A002033
:1020400009200000A811002000B583B008236A46CB
:10205000137001335370013393700133D370013324
:10206000137101335371034B98476B46185603B0F5
:1020700000BDC046D11F000010B5024B1B680020F8
:10208000984710BD480A002010B5024B5B6801203C
:10209000984710BD480A002010B5024B9B680220EB
:1020A000984710BD480A002010B5024BDB6803209A
:1020B000984710BD480A002010B5024B1B69042048
:1020C000984710BD480A002010B5024B5B690520F7
:1020D000984710BD480A0020F0B5D6464F46464600
:1020E000C0B58AB006000F00140031600B689B0772
:1020F0000AD40B680520DB0700D497E00AB01CBCAB
:1021000090469946A246F0BD936A0593D36A06931A
:10211000136B0793536B089300250AE038009A4B22
:1021200098470EE00F231840814530D10135042D2A
:1021300031D0E9B2AB0002AA0C201218D058002806
:10214000ECD0431CF2D001040B0C9946000CC3B236
:102150009C460023020605D463465B09DB018B4ADB
:10216000904643441F226046024098184030007851
:10217000824680205146C907D6D552089B18303375
:102180001878C0B26346DB07CCD50009CCE7002342
:1021900033601C20B2E711207D4B98472278002540
:1021A000012A26D06368A2681343E26813432B43D5
:1021B000227C617C002901D080210B43A17C002975
:1021C00002D0802189020A43E17C002902D08021CB
:1021D00089000A43217D002902D0802189010A4318
:1021E0003968022003438B4217D0002333601C2040
:1021F00084E704AA0100A069664B984703001720F2
:10220000002B00D07AE73B7BDBB204AA12780530C2
:102210009A4200D072E70C35C4E77B689342E4D160
:1022200023787371237CB371002067E708005A4B51
:102230009847052800D19FE0030012335749CD6924
:10224000012282402A43CA6109A92425625D0A70DD
:10225000DBB201931800524B98470198514B9847B5
:10226000605D0021504B98472378012B19D03368CB
:10227000984604AB80221A7000225A70012199708E
:10228000DA702378002B01D104AB9A70A36A05930E
:10229000E36A0693236B0793636B0893002705ADEE
:1022A00011E03B680C2213433B60E0E74046364BAD
:1022B00098470DE004A90870000CC0B23B4B98474A
:1022C0000137042F07D0F9B2BB0058590028EDD0D0
:1022D000431CEFD1F4E723787371237CB371A37CA3
:1022E000F371237D3372002202ABDA802378012B55
:1022F0002AD06368A2681343E2681343217C627C9E
:10230000002A03D12A4A9278920701D580221343EA
:10231000A27C002A02D0802292021143E27C002A91
:1023200002D0802292001143227D002A02D0802216
:1023300092011143424612681343424613605368A8
:102340000B4353600020D9E63068134B9847123096
:10235000C0B20F4B9847010002AB9A1DA0690D4B0C
:10236000984703001720002B00D0C7E602AB0633C6
:102370001B7842461373BCE7084A136A02210B43D9
:102380001362182360E7C046751E00000028004055
:10239000353200006B1D0000D11F0000000400401A
:1023A00011320000A1310000291E00000D33000091
:1023B0000020004110B544791523012C01D01800EC
:1023C00010BD047A0023002CF9D1002A58D04B7894
:1023D000002B44D003681B7EDB0710D40A78D10998
:1023E0000023002904D15309DB012E498C466344A4
:1023F0001F21114001228A409A610523DFE70A78F4
:10240000D4090023002C04D15309DB01254CA44638
:1024100063441F2414400122A2405A6103681A7EBB
:10242000D20701D58A789A62C2790023002AC6D1E0
:1024300002680421137E0B42FCD0117E0023490761
:10244000BDD5538B5B0701D5042353838379012BBF
:1024500002D0936A0023B2E7936A0023AFE70A78B9
:10246000D1090023002904D15309DB010D498C4611
:1024700063441F21114001228A405A6100239EE7D4
:102480000A78D1090023002904D15309DB01054949
:102490008C4663441F21114001228A409A61002327
:1024A0008DE7C04600280040F0B5DE4657464E4650
:1024B0004546E0B591B005000C0016002960080003
:1024C000C44B9847020005280DD0070012370300BF
:1024D00021680520C90709D511B03CBC9046994632
:1024E000A246AB46F0BD18270123F1E7216817305B
:1024F0008907F1D4052A49D0B749C86901229A4011
:1025000013000343CB610FA92D239846F35C0B7096
:10251000FFB23800B14B98473800B14B984743465B
:10252000F05C0021AF4B9847F37A6B712423F35C86
:10253000AB712523F35CEB71F37E2B72337F6B72EF
:102540002B6898461800A34B9847052826D01230D0
:1025500000220E2306A98C4663441A80328A029216
:102560008023DB019A4200D1A7E019D9C023DB0107
:10257000029A9A4200D19BE080231B029A4200D02B
:1025800023E1032306930023079312E09249086A8C
:10259000043A9A40130003430B62B4E71820D7E7CC
:1025A00080239B019A4200D00FE1102306930F3B3A
:1025B000079333680593F3689B4673690393337EEF
:1025C00004932623F35C9A4673689946002B00D146
:1025D0009BE080235B05994504D12723F35C002B06
:1025E00000D180E0737E002B02D0B37E424693730D
:1025F0000E2306AA944663441B8842469381059B9A
:102600005A461343039A13434A461343029F1F43F8
:10261000049B1B021F4353465B071F432723F35CA6
:10262000002B01D104331F43737E9B02327F520281
:102630001343727F120213432422B25C52041343E9
:102640002522B25C12041343B17AF27A1143194382
:102650003389FF2B7DD080225204174319432C234A
:10266000F35C002B03D1604B9B789B0701D5802343
:102670001F432A68D369002BFCD1434659602A685E
:10268000D369002BFCD143461F600EAB80221A7029
:1026900000225A70DA709A70336B0A93736B0B9343
:1026A000B36B0C93F36B02930D9300270AAE5EE0BD
:1026B00008230693073B07937BE733680593F3688A
:1026C0009B4673690393337E04932623F35C9A46F7
:1026D00073689946002B14D080235B05994500D17F
:1026E0007BE7002020E0336A1F00C0B23F4B9847D1
:1026F00001000E2206AB9C46624438003C4B9847D2
:1027000012E008230693002307932723F35C002B92
:102710000ED0069B0093079B0E2206A98C466244AE
:10272000B16A306A334FB847002800D0D4E659E781
:10273000336A1F00C0B22D4B98470100069B0093DF
:10274000079B0E2206A8844662443800294FB847EA
:10275000EAE7F37E002B82D08023DB041F437EE771
:102760002000254B984707E00137042F0DD0F9B220
:10277000BB0098590028F3D0431CF5D00EA908706F
:10278000000CC0B21D4B9847EEE70023EB602B61B5
:102790006B61AB61EB612B62AB626B620022EB851C
:1027A000AB853033EA540133EA540133EA54013340
:1027B000EA542868074B984704001149114B984781
:1027C000A400114BE550002086E610230693002359
:1027D0000793EEE6D11F0000000400401132000014
:1027E000A1310000291E0000002000413532000008
:1027F0006B1D0000951D0000751E00000D330000CC
:10280000352900000D200000A8110020C2791C23EA
:10281000002A01D118007047C28D92B2173B002ADE
:10282000F8D1026811850221137E0B42FCD00023EF
:10283000F0E782791C23002A01D118007047828DAD
:1028400092B2173B002AF8D10268107E4007F4D5F7
:10285000538BDBB298061DD0980703D50223538310
:102860001833EAE7580703D5042353831A33E4E700
:10287000D80703D5012353831233DEE7D80603D5E7
:10288000102353833233D8E79B0603D52023538389
:102890002133D2E7138D0B800023CEE7F0B5D64667
:1028A00000B584B0040001911720002A03D104B0C0
:1028B00004BC9246F0BDA3790530002BF7D0266802
:1028C000013A93B29A460025042719E0002302AA90
:1028D000D380911D2000154B98470028E7D1691C33
:1028E00089B202ABDB88019A53556279012A14D070
:1028F0000D005346013B9BB29A460D4B9A45D6D0EC
:10290000337E3B42E2D10A4B327E3A42DED1012B8A
:1029100009D0013B002BF7D1D8E70235ADB21B0A35
:10292000019A5354E5E71220C1E7C046332800005E
:10293000FFFF0000F8B58000624BC5582C68E369C2
:10294000002BFCD1237EA67D1E403023EB5C312280
:10295000AF5C1F40F30722D5EB8D9BB2002B1CD040
:10296000AA6A1378DBB2511CA962697901290ED0D9
:102970009BB2DB05DB0D2385EB8D013B9BB2EB8529
:10298000002B0CD1013323750133A37507E0517877
:1029900009020B430232AA62EBE701232375B30756
:1029A00006D50223237500223133EA54FB071AD4DB
:1029B000730765D5AB8D9BB2002B5FD0638BDBB209
:1029C0001A0714D43F221340002B34D09A0711D594
:1029D0001A223223EA54303B63837B0750D5280008
:1029E0006B6998474CE02800EB689847E0E737228E
:1029F0001340E9E75A0705D51E223223EA542E3B3D
:102A00006383EAE7DA0705D513223223EA54313B20
:102A10006383E2E7DA0605D542223223EA54223BF9
:102A20006383DAE720221A42D7D021323223EA54D4
:102A3000123B6383D1E7238DDB05DB0DDAB2696AD4
:102A40000A706A6A511C69626979012910D0AB8DDC
:102A5000013B9BB2AB85002B12D1043323750022BE
:102A60002E33EA54BB070BD528002B69984707E0A3
:102A70001B0A53706B6A01336B62E8E7042323750A
:102A8000F30604D5102323752376FB060ED4B30674
:102A900004D52023237523763B070BD4330704D5B5
:102AA000082323752376BB0608D4F8BD2800EB69FC
:102AB0009847ECE72800AB699847EFE72B6A2800B6
:102AC0009847F2E7A811002010B5082803D8800025
:102AD0001C4B1B589F46002032E01B4B18692FE00F
:102AE0001A4B187D0007800F431C1948584327E0F4
:102AF000154B586924E0144B1B6800209B071FD519
:102B0000124980225200CB681342FCD00E4B1B6846
:102B10005B0701D40F4813E000200F4B98470A4B86
:102B20009B681B041B0C58430AE02823074AD35C0C
:102B300000209B0704D5044BD86801E080200002E8
:102B400010BDC046349C0100600A0020000C00400B
:102B500000093D00006CDC023532000070B50B4C02
:102B6000237D8578467802780321114089000C2264
:102B700093430B430B3A3240920140218B43134362
:102B8000ED017F2213402B43237570BD000C0040E4
:102B9000F0B5D6464F464646C0B5204B9A465B69CF
:102BA000457801784C424C41A14681788C46C178E9
:102BB0008846467A077A847A406819494861012133
:102BC0004846800004229343034340460840C00027
:102BD00004329343034360460840000108329343A4
:102BE00003430F40BF01402083433B430E40F601A7
:102BF000403083433343793805402D020948034070
:102C00002B4321400903084803400B4352465361BC
:102C10001CBC90469946A246F0BDC046001000403C
:102C2000600A0020FFF8FFFFFFEFFFFF10B5837A77
:102C30009B061B0C82899205920D13431A494B6027
:102C4000037A427A13438288C4882243134342782A
:102C5000D20113438278920113430B600378042B53
:102C600011D0202B0ED1837B9B06428A1343028A0C
:102C700012040E490A4013430B4A936011680C4B2F
:102C80000B43136010BD837B9B06428A1343028A69
:102C9000120406490A401343034A9360136804214F
:102CA0000B431360EEE7C046600A00200000FF03FC
:102CB00024040000082803D88000294B1B589F4695
:102CC00017204BE0274A137D02210B431375002088
:102CD00044E0254A936902210B43936100203DE0C3
:102CE000204A138A02210B431382002036E01E4A39
:102CF000536902210B43536100202FE01B490B68ED
:102D0000022213430B60174B1A831900FE32CB6863
:102D10001342FCD0154A9168124B19625268DA616D
:102D200000221A8319000132FF32CB681342FCD013
:102D30000E4B1B689BB20B4A138300200EE009491F
:102D400028228B5C022003438B5408003821263A4A
:102D5000435C1342FCD1002000E000207047C046D5
:102D6000589C0100000C004000100040600A002048
:102D7000082832D880001A4B1B589F46194A137DE9
:102D800002218B43137500207047174A9369022173
:102D90008B4393610020F7E7124A138A02218B4389
:102DA00013820020F0E7104A536902218B435361DC
:102DB0000020E9E70D4B1A6802218A431A601B685C
:102DC0009BB2084A13830020DEE7064928228B5C69
:102DD000022083438B540020D6E71720D4E7C04657
:102DE0007C9C0100000C004000100040600A0020A4
:102DF000F0B5CE46474680B58DB080225200764B66
:102E00009A60FD3A754B9A60754A53681E218B4350
:102E10001A390B4353608023DB059B78022B0FD0BC
:102E20008023DB059B785BB2002B09DB8023DB056D
:102E300001229A7101329A701A009379002BFCD00A
:102E400009A80023037080221202426083700122CD
:102E5000C27003728372033242704372614B9847AF
:102E60000520614B984761490122CB681A42FCD08A
:102E700001A901254D6000244C700C724C72032393
:102E80000B7000205A4B984706205A4B98476B46C8
:102E90005C701D709C706846574B98470620524BDB
:102EA00098474D491022CB681A42FCD001A9012352
:102EB0004B6000244C7005330B700C724C72002078
:102EC0004B4B984704AB00229C80DC801A725A72EC
:102ED0009A703F2199813B3919705A70474B1B6892
:102EE0009B0E3F2B00D174E004A88372B723DB0054
:102EF00043820723837338330382414B9847414B06
:102F0000984701AC0126029600256570657205237D
:102F100099462370267221000120354B9846984728
:102F20000120394FB84765700623237025726572FA
:102F30004B46636021000220C0470220B84726703C
:102F400021000020314B98470020314B9847072043
:102F5000254B98472049D0221201CB681340934259
:102F6000FBD12C4C0123A3716371237101A90023B0
:102F70004B700B724B7207330B70013B4B600020A0
:102F80001B4B98470020204B98470020224B984726
:102F90002179C9B2214B9847214B984214D88023FC
:102FA000DB059B78002B0FD08023DB059B785BB281
:102FB000002B09DB8023DB0501229A7100229A7025
:102FC0001A009379002BFCD00DB00CBC90469946AA
:102FD000F0BD203B88E7C046000C004000140040D4
:102FE00000400041912B0000B52C00000010004073
:102FF00049300000712D00005D2B00002060800032
:103000002D2C000025300000F530000011320000AA
:10301000A13100000004004035310000151A010004
:10302000001BB700064A536940210B43536101223C
:10303000044B1A7019000B781342FCD17047C0463C
:10304000000400400018004070B504000D784B7873
:10305000002B02D08023DB001D434B7A002B02D0D3
:1030600080231B011D43486801280FD9431E1842C5
:1030700031D102282DD90223002201325B0098426F
:10308000FBD880235B011D43120415430B7A002BF0
:1030900002D080239B011D430426A6401149124AF9
:1030A0004B6813401E42FBD1104B9847A4000D4BB8
:1030B0009C466444226A80235B001A402A432262B1
:1030C0006146094A4B6813401E42FBD1084B9847A2
:1030D00070BD0022D5E7000480239B001843054300
:1030E000D4E7C04600180040FC070000610600005D
:1030F000A106000010B504000422824009480A49D4
:1031000043680B401A42FBD1084B9847A400054B7B
:103110009C466444226A80235B0013432362044B71
:10312000984710BD00180040FC0700006106000031
:10313000A1060000F8B50400042282401248134999
:1031400043680B401A42FBD1114B98470E4F08348D
:10315000A400E0590007000F0E4B98470600E55900
:10316000ED04ED0FE459240C0B4B9847002D07D1CB
:10317000012C07D921003000084B9847060001E0D8
:103180000134E6403000F8BD00180040FC070000A4
:1031900061060000C92A0000A1060000151A0100FE
:1031A00010B50400094B9847A000094B9C466044A9
:1031B0008022835840210B4383504031403A43588A
:1031C0001A42FCD0034B984710BDC0466106000070
:1031D00000180040A106000010B50400094B9847F4
:1031E000A000094B9C4660448022835840218B43B9
:1031F00083504031403A43581A42FCD1034B984720
:1032000010BDC0466106000000180040A106000085
:1032100070B504000D00054B98472A780F23134022
:103220002034A400024AA35070BDC046D93100002A
:103230000018004010B50400064B98472034A40045
:10324000054BE4582407240F044B98472000044BF7
:10325000984710BD6106000000180040A10600005C
:103260003531000030B5D378002B35D11378802B61
:1032700029D01B0680246402234354780225AC43E2
:1032800006D19478002C20D18024A40223434160ED
:103290005478013C012C1CD90D042D0CA024E4050C
:1032A0002C431C4384620D0CD02424062C431C4365
:1032B0008462D478002C22D15B031CD59378012B37
:1032C0001ED0416117E00023D7E7C024E402234366
:1032D000DDE70D4C2340DFE741600C04240CA02304
:1032E000DB05234383620C0CD0231B06234383623C
:1032F000D378002B03D15378013B012B02D930BD89
:103300008161F8E78160FAE7FFFFFBFF10B50A0073
:10331000C1090023002904D14309DB0105498C467A
:1033200063441F242040012181401800024B98472C
:1033300010BDC04600280040653200007047000004
:1033400010B5054B9847054B9847054B9847054BDB
:103350009847054B984710BDF12D0000D10600009D
:103360003D330000B50E00003D330000931C9B0070
:103370001950022A09D0032A0CD0012393401A00C5
:10338000037E1343037600207047037E102213430D
:103390000376F8E7037E202213430376F3E7000069
:1033A00070B58000164BC45823689D7A227E637ED8
:1033B00013401D40EB0706D4AB070BD4EB0610D42B
:1033C000AB0615D470BD2000A3689847012322687E
:1033D0009372F1E72000E368984702232268937212
:1033E000ECE7200023699847102322689372E7E7EF
:1033F000200063699847236820229A72E2E7C0465A
:10340000C011002010B50020014B984710BDC046E8
:10341000A133000010B50120014B984710BDC046F4
:10342000A133000010B50220014B984710BDC046E3
:10343000A133000010B50320014B984710BDC046D2
:10344000A133000010B50420014B984710BDC046C1
:10345000A133000030B587B001A90C4B0A0032CB74
:1034600032C212CB12C2019B98420BD0012301A998
:103470009A005258824206D00133052BF8D1002021
:1034800007B030BD0023D8B2FAE7C046C89C01009F
:10349000F0B5C64600B58EB004000D001600080059
:1034A000AE4B984780460CAB1B221A705A70013203
:1034B0009A70DA7001321A7102A9A94B14330A000A
:1034C00083CB83C283CB83C283CB83C21B6813604D
:1034D0000023A360E3602361636123766376434640
:1034E0009A00A04BD45025603423F35CA376F37884
:1034F000082B08D023712B680520DB0708D50EB0F8
:1035000004BC9046F0BD17204246D207F7D4F1E73D
:10351000EB7A17309B07F2D42B689B07EFD4337CF0
:10352000002B12D1337F002B1BD143465A0002A936
:10353000531C9B0058584346DB005B58D9B2042902
:1035400023D88B008849CB589F4601A901238B7053
:103550000022CA70327E0A704B70307D834B9847D0
:10356000E0E701A901238B700022CA702432B2184F
:1035700012780A704B701F33F31818787B4B9847FA
:10358000D3E77B494B6918434861F378082B00D196
:1035900086E033786A4613700CAB42469F5C6946FE
:1035A0003800744B98473800734B9847F378F2799A
:1035B0001343B2881343727A002A02D08022520247
:1035C0001343B27A002A02D0802292021343F27A85
:1035D000002A02D0802252031343327B002A02D0F9
:1035E00080229203134371788901B278D20111438A
:1035F000194322681369002BFCD1296022681369E2
:10360000002BFCD1B3792B73717B4B1E9941890040
:10361000B37B002B01D00123194322681369002BCF
:10362000FCD1FF332B71002904D022681369002BD1
:10363000FCD16971337A6B7322681369002BFCD15A
:103640002379042B59D0082B74D01720002B00D0DD
:1036500055E71369002BFCD1338DAB8222681369C7
:10366000002BFCD1738DAB8322681369002BFCD136
:10367000B38DEB83002042E73D498B691843886195
:1036800083E73B49CB691843C8617EE738490B6A39
:103690001843086279E7364B596A0843586274E761
:1036A00043460133042B00DD73E702ABD11C8900D4
:1036B000C95802329200D358DAB2042A00D968E716
:1036C00093002E4AD3589F46294A536919435161A2
:1036D0005FE7274A9369194391615AE7244AD369FE
:1036E0001943D16155E7224A136A1943116250E721
:1036F0001F4B5A6A114359624BE71369002BFCD1E7
:103700002833F35C2B7522681369002BFCD1293315
:10371000F35CEB7622681369002BFCD12A33F35C4F
:103720002B7722681369002BFCD12B33F35C6B776A
:103730000020E4E61369002BFCD1B36A6B612268B8
:103740001369002BFCD1F36AEB6122681369002B2B
:10375000FCD1336B2B620020D1E6C046553400000B
:10376000C89C0100C0110020A09C01000D33000086
:103770000004004011320000A1310000B49C01009F
:1037800002681369002BFCD1137101680B69002BCF
:10379000FCD18033537102681369002BFCD103798B
:1037A000042B05D0082B09D00020002B03D0704734
:1037B000107DC0B2FBE7908A80B2F8E75069F6E767
:1037C00010B504682369002BFCD10379042B06D0C3
:1037D000082B28D0002B13D01723180010BD172357
:1037E0000129FAD8837E002B05D0D2B2611830317E
:1037F0000A700023F1E7D2B2641822770023ECE7C5
:1038000017230129E9D8837E002B05D092B2183105
:1038100049000A530023E0E792B20C3149006418D2
:10382000A2800023D9E717230129D6D8837E002B55
:1038300005D106318900641862600023CDE70C31A0
:1038400089000A510023C8E710B51A4A1A4B9A4258
:1038500011D01A00194B9A420DD2194A03339B1A00
:103860009B0801339B000022134812498C58845056
:1038700004329A42FAD1134A134B9A420AD2D343E2
:1038800011495B1803218B4304339B18002102C2AA
:103890009342FCD10D4AFF210D4B8B4393600D4A9F
:1038A00053687F390B4353600B4B98470B4B98473A
:1038B000FEE7C0468CB6010000000020180A002078
:1038C00004000020180A0020101C002000ED00E079
:1038D0000000000000400041B54B010085B400002D
:1038E00070B5024D024C2800A047FCE7049D010082
:1038F000B1520100F0B5C64600B50C009046002854
:103900000FD1002A11DD8F18094E0A4D30682100B1
:103910002B6898470134BC42F8D1404604BC90461D
:10392000F0BD01235B429846F7E78046F5E7C046C5
:10393000DC110020D4110020F0B5C64600B50E0001
:1039400015000138022810D8002A11D000240C4B91
:1039500098460C4F43461868315D3B6898470028ED
:1039600008DB0134A542F5D106E00124644203E0FE
:10397000140001E001246442200004BC9046F0BD24
:10398000DC110020D81100200300064A1268002A2A
:1039900004D0044A1068C318136070470249014AF2
:1039A0001160F6E7780A0020103C00200120404218
:1039B000704780239B014B600020704701207047B7
:1039C0000020704770B582B005000E0000226B46E3
:1039D000DA80064C6B46991D2800A0470028F9D1D3
:1039E0006B4606331B88337002B070BD332800006D
:1039F00070B505008CB2034E21002800B0470028A6
:103A0000FAD170BD0D28000010B582B06B46DC1DE8
:103A1000012221000F48104B984772B6BFF35F8F09
:103A200000220E4B1A700E4B1B7821780D4AD15490
:103A30007F2B0AD001330A4A13700122074B1A70F8
:103A4000BFF35F8F62B602B010BD0022044B1A7044
:103A5000F3E7C0467C0A00209D28000008000020F3
:103A6000310B0020B00A0020F0B591B08023DB05B7
:103A7000009300230193FF2269460A8100228B7282
:103A8000CB7296218901089101242421684644546F
:103A90000131445401314354013143540A930531F7
:103AA00043540131435405930382C376027602776F
:103AB000427613238376427780235B0303932E4B56
:103AC0000C932E4B0D9301235B420E930F932C4DC1
:103AD0002C4B1D602C4A2D4B1A602D4A2D4B1A6021
:103AE0006A468421C90528002B4B98472B4F3B6819
:103AF000986800212A4EB0473B6858680021B047BB
:103B00002E683000274B98471F2318408440264BCF
:103B10001C602A68D369002BFCD13368022213434E
:103B20003360174B1B68DA69002AFCD15968802280
:103B300052020A435A600121114AD171DA69002AFE
:103B4000FCD1DA69002AFCD15968802292020A432A
:103B50005A6001210A4A9171DA69002AFCD113499D
:103B60000020134B984704228423DB059A75FC320E
:103B70000D4B1A6011B0F0BD0300040003000500F6
:103B80007C0A0020DC110020F1390000D81100204F
:103B9000C5390000D4110020A924000068000020CD
:103BA000F55301004920000000E100E0093A00005F
:103BB0000D20000070B5154D2C682000144B98475F
:103BC0001F2318401E3B8340802212498B502A68D5
:103BD000D369002BFCD123680222934323600B4B53
:103BE0001B68DA69002AFCD15A680B490A405A60FE
:103BF0000021064AD171DA69002AFCD15A680749C6
:103C00000A405A600022014B9A7170BD7C0A002064
:103C10004920000000E100E0FFFFFEFFFFFFFDFF85
:103C200070B502001F4B1C781F4B1B789C4219D3A8
:103C3000E31A1E4803701D4B1878002831D043B298
:103C4000002B15DB031C884200D90B1CD8B20028BE
:103C500027D0154B1B78441EE4B201341419144DBF
:103C6000002614E020008038C31A10480370E2E7F1
:103C70000D4B1C7080200D4B18704BB2002B01DBDC
:103C80000800E4E78020E4E73300944207D0E95CD1
:103C9000117001327F2BF7D00133DBB2F5E7024A16
:103CA000137070BD310B0020300B0020320B002050
:103CB000B00A0020134B1B6801211A7E0A42FCD077
:103CC0001A7ED20700D5986202211A7E0A42FCD0E1
:103CD00004211A7E0A42FCD01A7E002052070AD51F
:103CE0005A8B520701D504225A83064A9279012A37
:103CF00003D0986AC0B2C0B27047986AC005C00DC0
:103D0000F9E7C046400B002000B583B001A90123AC
:103D10004B7000228A700B702F20024B984703B023
:103D200000BDC046B50F000010B5054B1B68002B49
:103D300004D0044B9847024B1B68984710BDC046FF
:103D40003C0B00208D42000010B5054B1B68002B7A
:103D500004D0044B9847024B1B68984710BDC046DF
:103D6000380B00208D42000010B5054B1B68002B5E
:103D700004D0044B9847024B1B68984710BDC046BF
:103D8000340B00208D42000010B501220249034887
:103D9000034B984710BDC046E0110020400B0020A7
:103DA000B523000010B5002202490348034B984791
:103DB00010BDC046E0110020400B0020B5230000DC
:103DC000F0B5D6464F464646C0B590B001AC012688
:103DD00066700025A570267021005220524FB8470A
:103DE00021003E20B84721003F20B84721002F2066
:103DF000B8478022D2024D4B9A614D4B8022D205AA
:103E00009A61802212069A61802212029A612570BC
:103E100021005320B84702AC2000464B984730237E
:103E2000029365602572E67221000020424B9A469B
:103E30009847002200214148414B9946984700216C
:103E40000020404B984698470B23029365602572EB
:103E5000E67221000B20D04700220B213A48C847C8
:103E600000210B20C0470C23029365602572E67287
:103E700021000C20D04700220C213448C8470021E3
:103E80000C20C047324B98463F2342461370557072
:103E900095706670A570267021003F20B847434694
:103EA0001A78D1090023002904D15309DB012949DB
:103EB0008C4663441F211140012210008840986104
:103EC00002AC227000230393049323746374A274DE
:103ED000E27423752332A354183A002108A81E4B1C
:103EE00098471E4BA36180235B02E3601C4BA362D7
:103EF00001235B42E3621B4B23631B4B63631B4D3C
:103F000022001B4928001B4B98472A68D369002BC5
:103F1000FCD1136802210B43136010B01CBC904607
:103F20009946A246F0BDC046B50F000000290040EA
:103F300080280040150F0000290F0000693D000097
:103F4000D50D0000010E0000493D0000293D000094
:103F5000E011002000280040FD51010080841E0077
:103F60000500530005003E0005005200400B0020F4
:103F700000100042D9200000074B1A68D369002BBB
:103F8000FCD1136802210B431360034B1A68D369F9
:103F9000002BFCD17047C046400B0020064B1A682E
:103FA000D369002BFCD18F3313751376136802216C
:103FB0008B4313607047C046400B002070B582B041
:103FC0000A4CA0470A4D802636026E610120094B3B
:103FD000984701A900230B7001224A708B702F2093
:103FE000054B9847AE61A04702B070BD093D000087
:103FF0008028004059420000B50F000070B5040051
:104000000D00054B984780202043044CA047280012
:10401000A047034B984770BD893D0000B53C0000A8
:10402000A53D000010B50400064B98477F202040B6
:10403000054CA047FF20A0470400044B98472000F0
:1040400010BDC046893D0000B53C0000A53D000004
:1040500070B504000E0015000A4B984780202043DD
:10406000094B9847002D0AD03400013DEDB20135CF
:104070007519054E2078B0470134AC42FAD1034B94
:10408000984770BD893D0000B53C0000A53D00008B
:1040900070B504000E0015000A4B984720000A4B2B
:1040A0009847002D0BD03400013DEDB20135751954
:1040B000054EFF20B04720700134AC42F9D1034BCC
:1040C000984770BD893D0000B53C0000A53D00004B
:1040D000022807D0042808D0012800D07047044BDC
:1040E0001960FBE7034B1960F8E7034B1960F5E72C
:1040F000340B0020380B00203C0B002001280AD094
:10410000002908D002280AD1012908D18022920171
:10411000034B5A6103E080229201014B9A61704780
:1041200000280040012801D0002903D180229201FB
:10413000014B5A617047C04600280040022070477A
:104140000020704710B580229200034B9A61022034
:10415000024B984710BDC0460028004035060000BD
:1041600080229200014B5A617047C04600280040EF
:10417000012802D002280CD0704704228023DB05DE
:104180005A701A005378042BFCD1BFF34F8F30BF05
:10419000F2E705228023DB055A701A005378052BBD
:1041A000FCD1BFF34F8F30BFE6E7000010B584B0FD
:1041B00001226B469A7000236946CB700A716A46E9
:1041C0000B80013B02930393044C05492000054BEF
:1041D00098472000044B984704B010BDE41100201C
:1041E0000020004065110000E50F000010B50248F6
:1041F000024B984710BDC046E4110020D5100000C6
:1042000070B505000E000A4C00212000094B9847AC
:10421000082231002000084B984700222900200086
:10422000064B984708212000054B984770BDC046B3
:10423000E4110020911000000112000001110000A3
:104240003D12000010B508210148024B984710BDEF
:10425000E41100208112000010B5002803D10120D4
:10426000024B984710BD024B9847FBE70906000038
:104270003506000010B5014B984710BD61060000DF
:1042800010B5014B984710BDA106000070B5164B44
:104290001B78012B00D070BD0022134B1A70134BFA
:1042A0009847134B98471349134B9847134B98471C
:1042B00004000D00124B984720002900114B98472D
:1042C000114B1B68002BE6D09E68002EE3D0FA222B
:1042D00092000023200029000C4CA047B047002288
:1042E000094B1A60D7E7C0464C0B0020ED41000097
:1042F000552D0100D723F441FD260100391E010090
:10430000454200003DA00000500B0020751D01003B
:1043100070B5051E59D0334B1B780020002B00D000
:1043200070BD314B9847041E51D02B682F4A9446DC
:10433000634400242E4A9A426441E4B22A79022A54
:104340001ED0012A29D0012676420020002CE7D079
:10435000284B984730000A38274B98472749284B65
:104360009847284B98472849284B984701221D4BCE
:104370001A70274B1D602879264B98470120CFE7FC
:104380001B4A0024934206D8234B984701304442ED
:10439000444100E000242E68D7E71F4B9847431C98
:1043A0001CD0FA2189001D4B984703000020002CE7
:1043B000B6D00F490D4A9A188A42B1D82E689E424B
:1043C000C6D91E00C4E7164BF8E70020A8E72B79F2
:1043D000022BDFD0012BE0D00020A1E7002CF2D18E
:1043E0000F4EB2E74C0B0020A5A1000018FCFFFF08
:1043F000C8BBCE0709A00000552D0100751303426C
:10440000FD260100091E01008D420000014200004E
:10441000500B002071410000459D0000151A01005D
:10442000B0BFCE0770B5754B0321262299541024D6
:1044300004329C54293A26315A5402395A541A00EB
:10444000833200211A71150A5D71150C9D71120ECF
:10445000DA711A0043321A70150A5D70150C9D70DE
:10446000120EDA701A00A3321A72150A5D72150C58
:104470009D72120EDA721A006432FF321A74150A33
:104480005D74150C9D74120EDA741A0034321A75AC
:10449000150A5D75150C9D75120EDA751A003D3200
:1044A0001A76150A5D76150C9D76120EDA761A00CC
:1044B000C432FF321A73150A5D73150C9D73120E08
:1044C000DA73022222255A5501355A5500251D77E7
:1044D000163D5D771C359D773135DD77163D5A5594
:1044E0003226013D5E55193D0E3E9D5501369955CA
:1044F00007369D5501369D5521355C55B134FF3445
:104500001A553F4A15786824FF341D5555782B3CC1
:10451000FF3C1D5594783C229C540024043A9C5442
:1045200001329C5401329C5401329C5407329954FC
:104530001A003E32117051709170D170C331FF3149
:104540005A5C01242243022422435A542E229854B6
:1045500006380A2408280ED92A4B1B78002B02D1D2
:104560000122284B1A70284B9847284B9847284B14
:104570009847200070BD1C00180083302A3A254956
:10458000254DA8472000A33018222449A847200021
:10459000C430FF300C222249A8472000AE30FF3043
:1045A00002222049A84702231448FF252A24027921
:1045B000417909021143827912041143C27912062A
:1045C0000A4359008A1855700133DBB202579342EF
:1045D000EDDB0A4A1021C223FF33D15410785378FF
:1045E0001B020343907800040343D078000618436D
:1045F00040220D49084B98470824ADE720120020BF
:104600001C120020540B002021850000518C00005A
:10461000258F0000309D010079510100189D010097
:10462000789D0100749D0100349D0100F8B5DE46BF
:1046300057464E464546E0B583466A4C032126233D
:10464000E15445310433E1544139033BE154200046
:10465000B33000252071030A6371030CA371030EAC
:10466000E371260043362670330A6370330CA3705F
:10467000330EE3702123F831E154193B0827DD396B
:1046800063540131635460225242944622774D3183
:104690006177A7773939E17720220131A1541A3A9D
:1046A00090461E324146A1540132A5541B32924617
:1046B0005422FF325146A1540132A3545022FF32FA
:1046C000A55401324146A1545222FF32A354453A27
:1046D000FF3A91464632FF324946A1545622FF32F4
:1046E000A354002398464423FF334246E254230058
:1046F0004433FF33282252425A70742252429A7035
:104700003622DA70602398464823FF334246E2544B
:1047100023004833FF337A2252425A7069225242B0
:104720009A703622DA704C23FF336246E25423003B
:104730004C33FF3370225A709F703727DF7023008D
:10474000343323751F0A67751F0CA7751B0EE3759D
:1047500023003D3323761F0A67761F0CA7761B0EB6
:10476000E37605272C23E75405370133E754143744
:10477000053BE7545823FF33E5541B4B1A781F378A
:10478000E2555F783C23E75400233822A3540021EC
:104790003933E1540133E1540133E1540733E55433
:1047A00023003E33197059709970D9702E235A46E0
:1047B000E25490220D490E4FB84770220D49300047
:1047C000B847AB235B00E5540B4B98470B4B98471E
:1047D0000B4B984708203CBC90469946A246AB46F6
:1047E000F8BDC046201200201C120020849D01004C
:1047F00079510100149E010069860000BD8C000003
:10480000998F0000F8B58A4B032126229954102570
:1048100004329D540624013A9C54053C023A9C54AF
:104820001A00833200241A71160A5E71160C9E71EA
:10483000120EDA711A0043321A70160A5E70160CE4
:104840009E70120EDA701A00C432FF321A73160A02
:104850005E73160C9E73120EDA731A00A3321A726C
:10486000160A5E72160C9E72120EDA721A0064320A
:10487000FF321A74160A5E74160C9E74120EDA74E5
:104880001A0034321A75160A5E75160C9E75120ED1
:10489000DA751A003D321A76160A5E76160C9E7686
:1048A000120EDA76212299542226013A9E54193AA0
:1048B00002369A5501369C55052707369F55013615
:1048C0009A55BA32FF329954993AFF3A9D54594A4F
:1048D00015786821FF315D5455782B39FF395D54C7
:1048E00091783C2299540021043A99540132995408
:1048F000013299540132995407329C541A003E32C5
:10490000117051709170D1702E229854002804D0EB
:10491000C623012854D01800F8BD1C0018008330AD
:10492000283A4549454DA8472000A3302422444950
:10493000A8472000C430FF3048224249A847200041
:10494000AE30FF300C224049A84703233848FF25EA
:104950002A24027941790902114382791204114310
:10496000C27912060A4359008A1855700133DBB226
:1049700002579342EDDB2E4B002222215A54013183
:104980005A5408321A77223A5A77133A9A77603291
:10499000DA77274A107853781B0203439078000493
:1049A0000343D0780006184340222849234B9847F8
:1049B000274B9847274B9847274B98470823AAE748
:1049C0001B4C20008330062224491C4DA8472000A0
:1049D000A33024222249A8472000C430FF300C22F3
:1049E0002049A84703231248FF252A240279417948
:1049F00009021143827912041143C27912060A4353
:104A000059008A1855700133DBB202579342EDDB2F
:104A1000074B052122229954002101329954933ADF
:104A20001A7741325A77023A9A774A32DA77B0E700
:104A3000201200201C120020D49E01007951010098
:104A4000A89E0100349F01001C9F0100DC9E010014
:104A5000D9830000E98B0000B98E0000CC9E0100D4
:104A6000849E0100289F010070B55F4B032426221D
:104A70009C54102104329954293A19315A5402395C
:104A80005A541A00833200211A71150A5D71150CEF
:104A90009D71120EDA711A0043321A70150A5D7098
:104AA000150C9D70120EDA701A00A3321A72150AD4
:104AB0005D72150C9D72120EDA721A006432FF32AA
:104AC0001A74150A5D74150C9D74120EDA741A00AE
:104AD00034321A75150A5D75150C9D75120EDA754E
:104AE0001A003D321A76150A5D76150C9D76120E67
:104AF000DA7622229954022501329D54333A1A77EC
:104B0000703A5A7726329A778D32DA77123A9C5475
:104B10002E35013A9D54193A0C3D5A5501355955D7
:104B20009C35FF355C5529341A55223C26329C545D
:104B30001434053A9C542D4A15781E341D55002511
:104B4000043C1D5501341D5501341D5501341D55BE
:104B500054783D229C54053299541A003E3211700B
:104B600051709170D1702E2298540A240F2807D0CA
:104B70001F4B98471F4B98471F4B9847200070BD0D
:104B80001C0018008330283A1C491D4DA8472000FE
:104B9000A33024221B49A84706201349FF240B7980
:104BA0004A7912021A438B791B041A43CB791B06EC
:104BB00013431B185C7002302028F0D10A4A1E21D2
:104BC000C223FF33D154107853781B0203439078EB
:104BD00000040343D0780006184340220A49084BDA
:104BE00098470824C4E7C046201200201C12002069
:104BF000A5870000298D0000ED8F0000A09F010017
:104C0000795101007C9F0100A89F0100F0B5C646C4
:104C100000B5844B032126229954102504329D545B
:104C20000139013A99540124023A9C541A00833202
:104C30000024A0461A71160A5E71160C9E71120E9F
:104C4000DA711A0043321A70160A5E70160C9E70E2
:104C5000120EDA701A00C432FF321A73160A5E732B
:104C6000160C9E73120EDA731A00A3321A72160A09
:104C70005E72160C9E72120EDA721A006432FF32E5
:104C80001A74160A5E74160C9E74120EDA741A00E8
:104C900034321A75160A5E75160C9E75120EDA7588
:104CA0001A003D321A76160A5E76160C9E76120EA1
:104CB000DA76222299540132995400221A77163A50
:104CC0005A771C329A773132DA77163A9954362667
:104CD000013A9E54193A123E9A5501369C55203E8F
:104CE000BE27FF37DE550E3FFF3FBC460F37FF376D
:104CF0006446DC55C027FF37DE55BC36FF36995574
:104D00002A315A5401315A5421329D54464A157859
:104D10008031FF315D5455786821FF315D549578BD
:104D20002B39FF395D54D1783C2299540021043A43
:104D300099540132995401329954013299540732ED
:104D4000414699541A003E32002111705170917001
:104D5000D170C331FF315A5C012422430224224323
:104D60005A542E2298540A24052809D02F4B9847CC
:104D70002F4B98472F4B9847200004BC9046F0BD1E
:104D80001C00180083302A3A2B492C4DA8472000DC
:104D9000A33018222A49A8472000C430FF30182227
:104DA0002849A8472000AE30FF3004222649A847F2
:104DB000022302221B49C03F0025973EFF3E08798F
:104DC0004C7924020443887900040443C87900061E
:104DD000204354002018477058339B00CB181D7295
:104DE0005D729D72DD720132D2B213008857824229
:104DF000E5DB0C4BFF212F229954EF39C222FF3201
:104E0000995418785A7812020243987800040243A1
:104E1000D8780006104340220C49084B98470824D4
:104E2000A4E7C046201200201C120020D9880000F0
:104E3000918D00005190000000A001007951010007
:104E4000E89F010048A0010044A0010004A0010067
:104E5000F8B5DE4657464E464546E0B5964B032428
:104E600026229C54102104329954293A19315A545B
:104E700002395A541A00833200211A71150A5D71E1
:104E8000150C9D71120EDA711A0043321A70150A50
:104E90005D70150C9D70120EDA701A00A3321A7232
:104EA000150A5D72150C9D72120EDA721A006432C8
:104EB000FF321A74150A5D74150C9D74120EDA74A3
:104EC0001A0034321A75150A5D75150C9D75120E8F
:104ED000DA751A003D321A76150A5D76150C9D7644
:104EE000120EDA762222995401329954433A1A77F3
:104EF00033325A77203A9A774332DA77153A9C540C
:104F00003425013A9D541B3A103D5A5501355955E7
:104F10001B3DBE26FF369D55BF2701369F55C02637
:104F2000FF369D55B735FF355C5529341A55253C5C
:104F300028329C540734053A9C54604A15789F34B3
:104F4000FF341D555578703CFF3C1D5594783C222C
:104F50009C540024043A9C5401329C5401329C54C9
:104F600001329C54073299541A003E32117051702C
:104F70009170D1702E229854C63404280CD0504B16
:104F80009847504B9847504B984720003CBC904660
:104F90009946A246AB46F8BD1C0018008330283A5B
:104FA0004A494B4DA8472000A33024224949A8472D
:104FB00003210320404BFF2292460024C222FF32ED
:104FC00094465746983AFF3A934642001E79B046B7
:104FD0005E793602B14646464D462E439D792D04F4
:104FE0002E43DD792D062E43B04690444546564665
:104FF0006E701D79A8465D792D0246462E439D7937
:105000002D042E43DD792D062E43B4541D7AA84677
:105010005D7A2D0246462E439D7A2D042E43DD7A7D
:105020002D062E43B0461218920042445472624636
:105030009F540A00583292009A1814725472947253
:10504000D4720130C0B201005A469A569042BCDB7D
:10505000194CFF222F23E254207863781B0203436C
:10506000A07800040343E07800061843CF3A1A49B9
:10507000174B98472523E35C002B1ADD0E4A117865
:1050800053781B020B43917809040B43D17809062E
:10509000194300230126072514002520DA008A1869
:1050A000D671957101335BB2225C9342F6DB082422
:1050B00065E7082463E7C046201200201C12002088
:1050C000358A0000FD8D0000D190000084A0010011
:1050D0007951010060A001008CA00100F0B5DE460E
:1050E00057464E464546E0B583B001906A4C2623AC
:1050F0000322E25448220433E254433A033BE2548D
:1051000019320133E2542300B333002623711A0A03
:1051100062711A0CA2711A0EE271250043352570D6
:105120002A0A62702A0CA2702A0EE2702122FF2045
:10513000A054DD38173A225408270820844623203B
:105140002754833880462077702060776046A077A8
:105150003720E07701302022A0541C3A91462032BB
:105160004946A15401320321A1541B3292465422D4
:10517000FF325146A1540132A7545022FF32A654A7
:1051800001324946A1545222FF32A754453AFF3A10
:105190004B37FF37E2555627FF370A22E2552700E3
:1051A000343727753A0A62753A0CA2753F0EE775D7
:1051B00027003D3727763A0A62763A0CA2763F0EF0
:1051C000E77660224427FF37E25527004437FF3750
:1051D00001227A7038225242BA703522FA70402287
:1051E00052424827FF37E25527004837FF37512200
:1051F00052427A702E225242BA703522FA704C27EF
:10520000FF374246E25527004C37FF3770227A704D
:105210006246BA703722FA702C270322E2552D21FC
:105220000A2262545822FF32A6541C4A17781031C1
:10523000675451783C22A154002222540021393273
:10524000A1540132A1540132A1540732A6542200C4
:105250003E32117051709170D1702E2269460979D9
:10526000A15462320E4918000E4FB84770220E4901
:105270002800B847AB235B00E6540C4B98470C4B17
:1052800098470C4B9847082003B03CBC9046994681
:10529000A246AB46F0BDC046201200201C120020E2
:1052A000BCA00100795101004CA101009D820000C9
:1052B0007D8B0000658E000015207047152070471B
:1052C0002A230249CB5C137008207047201200206B
:1052D00005492123C85C1070CB5C0820FF2B00D04F
:1052E00070470230FCE7C04620120020222302490A
:1052F000CB5C137008207047201200202323024942
:10530000CB5C137008207047201200202023024934
:10531000CB5C1360082070472012002030B583B0AA
:1053200015000C7801A90C7001234B700D4B5B6DBF
:1053300015209847082804D0FF232B700A2003B0BB
:1053400030BD09490B794A79120213438A79120454
:105350001A43CB791B061A4363009B185B782B70AA
:10536000EDE7C046400D00202012002030B583B08C
:1053700015000C7801A90C7001234B700C4B5B6D70
:1053800015209847082804D000232B700A2003B06A
:1053900030BD08490A794B791B0213438A791204FC
:1053A0001343CA7912061A436400A35C2B70EEE71C
:1053B000400D00202012002001235B4213800A20B0
:1053C000704701235B4213600A207047FA239B0059
:1053D000138008207047FA23DB00138008207047F1
:1053E000014B13800820704788130000014B138085
:1053F0000820704770170000FA23DB001380082094
:105400007047202313700820704740231370082032
:1054100070478023DB01138008207047272302494F
:10542000CB5C13700820704720120020262302490D
:10543000CB5C137008207047201200202F230249F4
:10544000CB5C13700820704720120020094BC0214C
:10545000FF31595C9171BE21FF31595C1180DF2110
:1054600049005B5653800123D3710433938000209D
:105470007047C0462012002030B50B782A21204802
:1054800041560A208B4239DC5420FF301C4C245CEE
:10549000A3421CD30A208B4230DA1B1B19494B4311
:1054A000174C4821FF31615C3F30FF30205C000227
:1054B00001434A20FF30205C00040843A521490035
:1054C000615C0906014359181160082016E00C4C74
:1054D0004421FF31615C0F38205C00020843462103
:1054E000FF31615C09040843A3214900615C09069E
:1054F000014305484343CB181360082030BDC04624
:1055000020120020006A1800400D03000A78A8232A
:105510005B000349CB5C08209A4200D902307047F7
:10552000201200200B78242208498A5C0A209A4223
:105530000AD3E12252008A5C0238D20704D5222223
:105540008A5C9A4200D902307047C046201200207F
:105550000B78A922520006498A5C0A209A4206D397
:105560005222FF328A5C02389A4200D902307047D8
:10557000201200200B78242208498A5C0A209A42D3
:105580000AD3E12252008A5C0238920704D5222213
:105590008A5C9A4200D902307047C046201200202F
:1055A0000A782A230349CB5608209A4200DB0230AE
:1055B0007047C046201200200B782A2208488256E5
:1055C0000A2093420ADA4A780238002A06D1C13208
:1055D000FF3203498A5C9A4200D902307047C046C4
:1055E0002012002030B583B014000D7801A90D7091
:1055F00001234B7015200B4B9847082802D00A2036
:1056000003B030BD084A6B005B199B00D318AB3365
:105610001B78D4335B00D218517993791B020B436A
:105620002380EDE7B955000020120020F0B5944624
:105630001B4B24215C5C01315F5C05315E56002E02
:1056400028DD19001D795B791B022B438D792D0410
:105650002B43CD792D061D4300210BE043781B0918
:10566000BB4203DD0078002800D01F000131C9B221
:10567000B1420FDA4800281843781B071B0FA342DA
:10568000ECDA0278002AF1D01C0043781B09BB42F7
:10569000EBDCEBE763461C705F700820F0BDC04692
:1056A000201200200B78052B04D00820072B00D9EE
:1056B000023070470A20FCE70A782D230349CB56B5
:1056C00008209A4200DD02307047C04620120020B8
:1056D0000820704730B50988002920D02A23114AB4
:1056E000D05600281BDD147A537A1B022343947A88
:1056F00024042343D47A24061C430023032504E016
:1057000049080133DBB2834209DA0029F8D05A0094
:10571000D2189200A218D27A2A40032AF0D0082088
:1057200030BDC046201200200B780820002B02D08C
:10573000062B01D0023070470820FCE710B582B07C
:1057400001AC042220000F4B98476388002B04D142
:1057500001AB1A780A23002A07D06B46991D1A203C
:10576000094B98470A23082802D0180002B010BD40
:1057700001A91330054B984703000828F5D00A23E8
:10578000F3E7C04679510100D556000029570000C3
:105790000A7824230349CB5C08209A4200D90230BE
:1057A0007047C0462012002070B50D782A23144A95
:1057B000D456002C22DD107953791B0203439079D3
:1057C00000040343D0790006184300232E0003E0B1
:1057D0000133DBB2A3420FDA5A0082181178002994
:1057E000F6D051780907090F8D42F1DB5278120982
:1057F0009642EDDC082000E00A2070BD0A20FCE79C
:105800002012002010B50868074B9C466044074AE8
:105810000A23904206D80649064B984708230029D8
:1058200000D00233180010BD608FF7C8401640004A
:10583000C0270900211B01000A782C230349CB56FD
:105840000A209A4200DC02387047C046201200202D
:1058500030B504002923194AD55C002D2CD0110045
:10586000137B527B12021A438B7B1B041A43CB7BA4
:105870001B061343002004E00130C0B20C33A842E1
:1058800018D01A785978090211439A7812041143F2
:10589000DA7812060A43A242EED81A795979090237
:1058A00011439A7912041143DA7912060A43944299
:1058B000E2D800E0FF2030BDFF20FCE720120020EE
:1058C00010B50868044B98470823FF2801D018003A
:1058D00010BD0233FBE7C0465158000010B52A2323
:1058E0000E4AD35698420BDB2E23D25C223B134147
:1058F000DB0712D4E0235B00084AD35C83420CD858
:10590000064C2379627912021A43A3791B041A43C5
:10591000E3791B0613434000C15410BD2012002040
:1059200030B52A233A4AD356984217DAE0235B006F
:10593000D35C834212D8420012189200344D2B7A65
:105940006C7A24021C43AB7A1B041C43EB7A1B06C3
:1059500023439B18DB7ADB439B0700D030BD2B0031
:105960002C796D792D0225439C7924042543DC791B
:1059700024062C43400001552E20185C03230341CC
:10598000DB07EBD50029E9D1214B1C7A597A0902B2
:1059900021439C7A24042143DC7A24060C43A21878
:1059A000157A2A22985600281CDD1A0019795B798D
:1059B0001B020B43917909040B43D1790906194362
:1059C000002303E00133DBB283420BDA5A00525C5E
:1059D000002AF7D05A00D2189200A218127AAA42CE
:1059E000F0D1BBE70A490A7B4B7B1B0213438A7B3E
:1059F00012041343CA7B12061A436B005D19AD00F3
:105A0000AD1800232B726B72AB72EB72A6E7C04627
:105A10002012002070B582B00D784E7801A90D706B
:105A200001234B7015200C4B98470400082803D025
:105A30000A24200002B070BD2E23084AD35C0F2B2D
:105A400004D031002800064B9847F2E731002800C7
:105A5000044B9847EDE7C046B955000020120020DE
:105A600021590000DD58000010B50E4B1A795C7901
:105A7000240214439A7912041443DA791206224359
:105A80004400A1542E229B5C052B00D010BD583041
:105A90008000044B18180023037243728372C37290
:105AA000F4E7C0462012002010B5184C2379627923
:105AB00012021A43A3791B041A43E3791B0613430A
:105AC0004200D15400291CD0227A637A1B0213436E
:105AD000A27A12041343E27A12061A4343001818FA
